:100000000C9489000C94E7110C94E7110C94E711FF
:100010000C94E7110C940C0B0C94FB0C0C94690CD5
:100020000C9492110C94E7110C94E7110C94E711C5
:100030000C94E7110C94E7110C94E7110C94E71160
:100040000C94E7110C94E7110C94E7110C94E71150
:100050000C94E7110C94E7110C94E7110C94E71140
:100060000C94FE0B0C94E7110C94CB0C0C949B0C91
:100070000C94E7110C94E7110C9497110C94E71170
:100080000C94E7110C94E7110C94E7110C94A11156
:100090000C94E7110C94E7110C94E7110C94E71100
:1000A0000C94E7110C94E7110C94E7110C94E711F0
:1000B0000C94E7110C94C80A0C949C110C94E71151
:1000C0000C94E7110C94E7110C94E7110C94E711D0
:1000D0000C94E7110C94E7110C94E7110C94E711C0
:1000E0000C94E7110C94E7110C94E7110C94E711B0
:1000F0000C94E7114000400880400840340023F091
:100100004034404E80404E405000241C40504054EB
:10011000800011241FBECFEFCDBFDFE7DEBFE4EFCD
:10012000F0E041E019C0B791A7913791279107916D
:1001300007FD0EC097918791EF01F92FE82F0BBFB4
:1001400007900D92A217B307D9F7FE011BBE04C09A
:100150001D92A217B307E1F7E131F40721F70E94DE
:0A01600049070C945F10F894FFCFDC
:10016A004E6577204761696E3A2025730A0D0A0D9C
:10017A000043757272656E74204761696E3A202574
:10018A00730A0D004D656173757265643A20002526
:10019A00312E3366560A0D0A0D003100312E3037E2
:1001AA0000312E313400312E3333003200322E36F4
:0901BA0037003400380031360032
:1001C30068076C094C836A9074A07AC000806888C1
:0601D30000846C82008133
:1001D900494E4600696E66004E414E006E616E00E2
:0701E900286E756C6C290003
:0601F000286E696C290075
:1001F600A8E2B0E0E1E0F1E00C94240F89A39AA311
:10020600688F798F2A8FFB010190F081E02DED87B1
:10021600FE87FB010280F381E02DEB83FC83FB016B
:100226000480F581E02DEC8BFD8BFB010084F185CC
:10023600E02DEDA3FEA3FB010680F781E02DE98307
:10024600FA83FA01408051806280738020E030E0BA
:10025600A901C301B2010E94B01187FF06C077FA57
:10026600709477F870948DE204C0FD85F2FF35C373
:100276008BE2E981FA8180832C893D8921503109FD
:100286002F83388741E050E04A8B5B8B06C08C8910
:100296009D898F8398871A8A1B8AD301C201BF77EB
:1002A6000097E0E8AE07EFE7BE0781F40E94F90F7A
:1002B60020F449ED51E060E003C04DED51E060E00F
:1002C6000E9416106DED71E080E013C00197A04802
:1002D600BF47D8F00E94F90F20F441EE51E060E0EC
:1002E60003C045EE51E060E00E94161065EE71E035
:1002F60080E00E94D60FE981FA81AF0160E8ED84C3
:10030600FE840C891D899C01E0C220E030E0A90131
:10031600C301B2010E94B011812C912C20E8A22EBB
:100326002FE3B22E212C312C882309F480C0498674
:100336005A866B867C860E9479110E94CE116B01CB
:100346007C01D301C2018C199D09AE09BF09B7FF13
:1003560007C0B095A095909581959F4FAF4FBF4F21
:100366000297A105B10534F4FFEF2F1A3F0A4601A3
:100376005701E1CFA3019201C701B6010E94B01156
:1003860087FDF2CFC984DA84EB84FC84C818D908C7
:10039600EA08FB082FEFC21AD20AE20AF20A33E091
:1003A600C316D104E104F10408F43FC000E010E0F4
:1003B600A3019201C501B4010E94B5111816BCF53E
:1003C60044ED24164EEF3406CCF401151105B1F4B4
:1003D60020E030E040E85AE5C301B2010E94CE11A8
:1003E6002B013C0120E030E040E85AE5C501B401AC
:1003F6000E94CE114B015C0101E010E00E947911D0
:100406000E94CA114B015C0151E0251A3108D30143
:10041600C20188199909AA09BB090196A11DB11D36
:100426000397A105B10508F0C3CF240135018A8DD4
:10043600082E000C990B8A8F9B8F0E94DB1088A3D5
:10044600EB81FC81F7FD03C0E987FA8704C026E04B
:1004560030E029873A8738A1373651F44B815C81E1
:10046600452B09F03FC281E090E089879A873AC21E
:1004760028A1298B04C037FE46C236E6398B49854A
:100486005A854F5F5F4F49875A875989563699F47F
:1004960037FE08C0812C912C90E8A92E9FE3B92E37
:1004A600212C312C88A1873631F0E985FA85E20DB9
:1004B600F31DE987FA8788A69FA2AB82BF867301E0
:1004C60062011E8A1F8A4E895F8989859A85481727
:1004D600590774F528A53FA14B815F85C701B60171
:1004E6000E9454106BA38701760117FB109517F92C
:1004F600109528A53FA14B815F850E94F8106B01DE
:100506007C01F7FAF094F7F8F0940E947E1168A542
:100516007FA18B819F850E94CA1168A77FA38B83C9
:100526009F872E893F892F5F3F4F2E8B3F8BCBCFE7
:1005360020E030E040EA50E468A57FA18B819F85EA
:100546000E94CE116B837C838D839E839B01AC01BD
:10055600C701B6010E94B01187FD0DC02B813C81F9
:100566004D815E81C701B6010E94B011811107C09D
:100576009BA190FD04C01B821C821D821E82A301CA
:1005860092016B817C818D819E810E9407112B01D6
:100596003C010E9479110E94CE116B837F87D82E71
:1005A600C92E9B01482F592FC301B2010E94B511D4
:1005B60087FD11C0EFEF2E1A3E0AF989F63679F457
:1005C60029853A852F5F3F4F29873A873B813FA38D
:1005D6004F8548A70BC08B829F86DA2CCB2C598976
:1005E600553631F08B818FA39F8598A7410106C0B0
:1005F600EB81EFA3FF85F8A7812C912CAA88BB88F5
:10060600E12CF12C1E8A1F8A1F86188A2D853E85AD
:10061600207133272BA33CA32F85388949855A851A
:100626002417350734F08E899F89892B09F492C0E7
:100636009EC08501E88DF98D808591850597A81660
:10064600B90688F72FA138A54D2D5C2DC301B2013F
:100656000E9454106A30710514F069E070E04BA1F5
:100666005CA1452B69F46115710551F458A1573603
:1006760039F497FE05C0C70101968B839C8341C060
:10068600EE89FF89EF2BA9F497FE13C0FFEFAF1A8F
:10069600BF0AE981FA81E00FF11F2EE220834F8124
:1006A6005885415051094F83588781E090E08E8BE1
:1006B6009F8BE981FA81EA0DFB1DEB82FC824B815F
:1006C6005C81452B49F090E391932B813C8121502D
:1006D60031092B833C83F3CFC7018A0D9B1D2F81E4
:1006E60038852E193F095C015FEFA51AB50AE98125
:1006F600FA81E80FF91F605D6083C90101978F8356
:1007060098878301720117FB109517F910952FA191
:1007160038A54D2D5C2D0E94F8102B013C0177FA6F
:10072600709477F870940E947E116FA178A58D2D34
:100736009C2D0E94CA116FA378A7D82EC92E91E0CE
:10074600891A9108EF85F8893196EF87F88BEB8047
:10075600FC8062CFFD85F4FF0AC0E981FA81EA0DCB
:10076600FB1D8EE2808395012F5F3F4F5901498122
:100776005A814A0D5B1D4B835C83FA011082F9890D
:10078600F53609F061C0E981FA812DA13EA1E20F9B
:10079600F31F3197108237FE06C031942194310839
:1007A60001E010E002C000E010E0EDA1FEA13197EB
:1007B60049815A81E40FF51F22E030E08AE0E82EF5
:1007C600F12CCF0149815A81841B950B21143104E8
:1007D60079F0C101B7010E949C0F805D82931B01D5
:1007E600215031098F81988501978F839887E9CFAA
:1007F6001216130674F3FC013197E40FF51F012B53
:1008060011F42BE201C02DE220830297E981FA81DF
:10081600E80FF91F2A8D3B8D215431092A31310504
:1008260010F025E601C025E420832F81388522506B
:1008360031092F833887A816B90634F4AF0160E86A
:100846008B819C810E94161049815A813A0180E869
:10085600882E9D8591FF2EC090FD2CC0EF81F885D6
:100866001E161F063CF5882DB3010E94D60F29815E
:100876003A81820F931F9C0149815A81241B350BB3
:10088600EA89FB892E173F074CF0FC012081EF8196
:10089600F885E80FF91F20830197EDCF4F81588522
:1008A60060E370E089819A818E0F9F1F0E94A210DB
:1008B6001C8A1D8A882DB3010E94D60FED84FE8402
:1008C6000C891D899C01682DA30189A19AA10E940A
:1008D600EB09A896E2E10C94560F5D8553FFD7CC41
:1008E60080E2C7CC2CEF22162FEF32064CF0E985BA
:1008F600FA852E163F060CF4BECDF5E6F98BDBCD58
:0C09060035E6398BD8CD46E6498BD5CDBF
:100912002F923F924F926F927F928F929F92AF92BD
:10092200BF92CF92DF92EF92FF920F931F93CF93DA
:10093200DF93CDB7DEB72E97CDBFDEBF4C016B0183
:10094200380119821A828FEF9FEF8B839C831D825D
:100952001E824F83588729873A87A12CB12CD60152
:100962002D913D914C912A0D3B1D411DB7FC4A959D
:100972000E947411862F611114C0F6012083318305
:1009820042830E947411653209F043C11901442E59
:10099200FFEF2F1A3F0A4F0AD6012D923D924C9239
:1009A20017C0653251F3B401082E000C990B0E9456
:1009B2007F0A4FEFA41AB40AD2CF6C328CF06D3298
:1009C200D9F429813A81216029833A830E94EA106D
:1009D2000E9487106B3289F729813A812460F4CF13
:1009E200603221F429813A812860EECF633251F4DA
:1009F20029813A812061E8CF603321F429813A814B
:100A02002260E2CFB701C6010E94E10D8D839E8371
:100A120097FF0BC029813A81F1E02F2729833A837E
:100A22009195819591098D839E8389819A8180FF19
:100A320003C08D7F89839A830E9487106E3241F4AE
:100A42000E94EA10B701C6010E94E10D8B839C83CC
:100A5200C6010E944B0B182FD6019C9111968C91C6
:100A6200119712965C91E92FF82F0E942911862F77
:100A7200660F990B0E94DB10893609F42FC084F4AB
:100A8200833609F481C034F4853209F495C0813685
:100A9200E1F0A0C0843611F188360CF46CC09AC023
:100AA200803709F442C03CF48E3609F459C08F36BF
:100AB20009F42BC08FC0853709F41EC0883709F4AA
:100AC2002DC0833709F086C069C00E94901009F4D6
:100AD2009EC00E946A110E94000096C0612F70E0C1
:100AE200970141E050E00E94301109F490C00E9449
:100AF2006F110E94000088C00E94BB1009F487C0D9
:100B02000E946F110E9400007FC00E94BB1009F476
:100B12007EC00E946F110E94000076C00E94BB102E
:100B220009F475C00E94C40F16C0970140E050E05E
:100B320060EF70E00E94301109F469C00E94D21186
:100B42008B859C85892B31F400E010E020EF31E0A9
:100B520040E054C028E70E94C3100E94000054C025
:100B6200A501460D571D612F70E09701CE010B962E
:100B72000E9400004CC00E94901009F448C00E94DC
:100B82006A110E94FB0040C0103809F040C00E9468
:100B9200B31002968D939C9380811AC0103809F08D
:100BA20036C00E94B31003968D939C9320813181AD
:100BB200428100E010E022C0103849F5F6012081A0
:100BC200318142812F5F3F4F4F4F208331834283D8
:100BD2008B870EC085E28B87F601208231824282AA
:100BE20019821A821D821E828FEF9FEF8B839C8354
:100BF2009E01255F3F4F40E801E010E0BE016F5FBC
:100C02007F4FC4010E94890B8A0D9B1D03C00E9465
:100C1200D211C5012E96CDBFDEBFDF91CF911F91BC
:100C22000F91FF90EF90DF90CF90BF90AF909F9089
:0E0C32008F907F906F904F903F902F9008957D
:100C4000A5E1B0E0E6E2F6E00C94240F470158017C
:100C50000E94CE112B013C01A80197010E940711AF
:100C6000162FC72ED82EF92E862F9C2DAD2DBF2DD9
:100C700089839A83AB83BC83AA81FB81EC81ED805D
:100C80003E802F8008850D8B5E2F5F71212F3A2FBC
:100C90004F2F60E070E080E090E0211531054105C4
:100CA00000E15007610571058105910509F05AC001
:100CB0005E2F6E2D732D822D9D8904E30E949E0E62
:100CC0002D873E874F87588B698B7A8B8B8B9C8BBC
:100CD0008D859E8597708F3F974009F443C0A3018F
:100CE00092010E9460110E9406119B01AC01C50196
:100CF000B4010E94B0118823A9F149865A866B86F7
:100D00007C8629853A854B855C85C501B4010E94A6
:100D10000711B62E872E982EA92E262F372F482F53
:100D2000592F0E9460110E94B011811118C02B2D03
:100D30008B2D982DA92DBA2D89839A83AB83BC83E3
:100D40003A814B815C816E2D732D822D9D89A1E0AE
:100D50000E943D10122FC32ED42EF52E03C01B2D42
:100D60006401FA2C0E9460116596E2E10C94560F22
:100D70000F931F93CF93DF9340E054E0FA0110826A
:100D800020E234E089E0F901808380E494E0FC0112
:100D90001082C0E6D4E01882A0E8B4E01C9200EA19
:100DA00014E0F8011082FA01148261E0F901648311
:100DB000FC0114821C8214961C921497F801148270
:100DC000FA010E949910F901108A118A48E8428BB1
:100DD000138A148A158A168A178AFC010E949910B0
:100DE000188A84E0898B8A8B1B8A1C8A1D8A1E8A3A
:100DF0001F8A50961C92509751961C92519752966A
:100E00001C92529753961C92539754961C92549747
:100E100055961C92559756961C92569757961C922B
:100E2000F8010E949910E0EEF5E01186118210821F
:100E300014821682178210861582128213821286FD
:100E40008EEE91E180934440909345408FEE91E186
:100E5000809342409093434080EF91E180934040E3
:100E60009093414081EF91E180933E4090933F40C9
:100E70008DEE91E180933C4090933D408CEE91E16A
:100E800080933A4090933B40DF91CF911F910F9117
:020E90000895C3
:100E92000E94860F82EC91E10E9488118EEB91E113
:100EA2000E948D11809100068E7F8093000681E062
:100EB20080930B06809100068160809300060E9459
:100EC200741080E00E94D5118AE6C82E81E0D82EE7
:100ED20080E0E82E18E09BE7692E91E0792E90E001
:100EE200892E2EE8222E21E0322E20E0422E0E9470
:100EF200E1118823B9F00E94DE110E94B40D0E9414
:100F02000A0F8F937F936F93EF92DF92CF920E949B
:100F12003D0F0E9442110F900F900F900F900F9073
:100F22000F9038C00E94DB118823A1F10E94D811D2
:100F32000E948311EC01109327040E940A0F8F93E1
:100F42007F936F938F927F926F920E943D0F4F9289
:100F52003F922F920E943D0F0E94D310BE0180E06B
:100F620090E00E94C60B23E333E343E55AE30E9479
:100F7200CE119F938F937F936F9389E991E0A0E0C5
:100F8200AF939F938F930E943D0F8DB79EB740966C
:100F92008DBF9EBF0E94D3100E94E1118111A7CF85
:060FA20088950000A4CFB9
:100FA8004F925F926F927F928F929F92AF92BF9271
:100FB800CF92DF92EF92FF92CF93DF93CDB7DEB758
:100FC8002897CDBFDEBF6B017C01DC01CB0147E177
:100FD800B695A795979587954A95D1F799278F57ED
:100FE8009109873191056CF597FD30C088248A9462
:100FF800982C3FE7A32EB12C04C0B594A7949794DE
:1010080087948A95D2F7D501C4018C219D21AE2100
:10101800BF21892B8A2B8B2BA1F00E947E106D8318
:101028007E838F839887F7FE04C0C80CD91CEA1CFE
:10103800FB1C80949094A094B094C820D920EA20F6
:10104800FB205C2D4D2D3E2D2F2D1BC00E947E10A8
:1010580069837A838B839C83F7FE0FC0D701C6010F
:10106800880F991FAA1FBB1F892B8A2B8B2B49F32B
:1010780050E040E030E82FEB04C050E040E030E0C2
:1010880020E0652F742F832F922F2896CDBFDEBFC7
:10109800DF91CF91FF90EF90DF90CF90BF90AF900E
:0E10A8009F908F907F906F905F904F90089573
:1010B60010C00E941B1158F00E94141140F029F430
:1010C6005F3F29F00C945A1151110C9423110C9482
:1010D600E4110E945A0E68F39923B1F3552391F354
:1010E600951B550BBB27AA2762177307840738F091
:1010F6009F5F5F4F220F331F441FAA1FA9F333D0F0
:101106000E2E3AF0E0E830D091505040E695001CA3
:10111600CAF729D0FE2F27D0660F771F881FBB1F5F
:10112600261737074807AB07B0E809F0BB0B802D39
:10113600BF01FF2793585F4F3AF09E3F510568F075
:101146000C945A110C9423115F3FE4F3983ED4F3A8
:1011560086950E9465119F5FD9F7880F911D969518
:10116600879597F90895E1E0660F771F881FBB1FE3
:10117600621773078407BA0720F0621B730B840B90
:0A118600BA0BEE1F88F7E0950895FC
:101190000FC00E94141138F00E941B1120F09523FB
:1011A00011F00C945A110C94E41111240C94231195
:1011B0000E945A0E70F3959FC1F3950F50E0551F92
:1011C000629FF001729FBB27F00DB11D639FAA279C
:1011D000F00DB11DAA1F649F6627B00DA11D661FEB
:1011E000829F2227B00DA11D621F739FB00DA11D0C
:1011F000621F839FA00D611D221F749F3327A00DC6
:10120000611D231F849F600D211D822F762F6A2F61
:1012100011249F5750409AF0E1F088234AF0EE0FD6
:10122000FF1FBB1F661F771F881F91505040A9F7F3
:101230009E3F510570F00C945A110C9423115F3F9E
:10124000E4F3983ED4F386950E946511E7959F5F7D
:10125000D1F7FE2B880F911D9695879597F90895E4
:1012600011C00E94141138F00E941B1120F039F4B3
:101270009F3F19F426F40C94E4110EF4E095E7FB7B
:101280000C945A11E92F0E945A0E58F3BA176207AC
:1012900073078407950720F079F4A6F50C942211C2
:1012A0000EF4E0950B2EBA2FA02D0B01B901900181
:1012B0000C01CA01A0011124FF27591B99F0593FC5
:1012C00050F4503E58F11A16F040A22F232F342F1D
:1012D0004427585FF3CF469537952795A795F0405B
:1012E0005395C9F77EF41F16BA0B620B730B840B70
:1012F000AAF0915091F0FF0FBB1F661F771F881F48
:10130000C2F70CC0BA0F621F731F841F38F4879591
:101310000E9465119E3F08F0B2CF9395880F08F0A8
:0A1320009927EE0F97958795089521
:10132A00E0E0F2E086E0808B118A128A138A148A3E
:10133A00158A81E084A710A211A212A213A214A2F4
:10134A0015A216A217A215A616A612AE13AE16AEAF
:10135A0017AE109240021092410214AA15AA17A6BB
:10136A00168A178A10AA12AA1092420210924302EF
:10137A00109248021092490216AA108E118E10A6D7
:10138A0011A612A613A611AA14AE15AE1092440203
:10139A001092450217AA10AE10924B0210924D02FB
:1013AA0010924C0210924A0210924F02109251026D
:1013BA001092500210924E0210925302109255024D
:0C13CA00109254021092520280E008952C
:1013D6006F927F928F92AF92BF92CF92DF92EF92EF
:1013E600FF920F931F93CF93DF935C013A01862EF2
:1013F600E901670181E0C822DD24E0FC03C0201773
:10140600310758F09E01682DA301C5010E94340CD6
:10141600C017D10710F0CE0118C07801EC1AFD0AEA
:10142600E114F10449F0B50180E290E00E947F0AE0
:1014360081E0E81AF108F4CFCD2831F49E01682D39
:10144600A301C5010E94340CC801DF91CF911F9101
:101456000F91FF90EF90DF90CF90BF90AF908F905D
:061466007F906F900895D5
:10146C00A3E8B0E0ECE3FAE00C942A0F5C0149012C
:10147C00CF57DF4F488359836A83C158D040C12C62
:10148C00D12CCF57DF4F9881C158D040CE57DF4F6A
:10149C008881C258D040CD57DF4F5881C358D040B7
:1014AC00E92FF82F0E9429116623E9F074018601B7
:1014BC0020E830E0AE014F5F5F4FBE016F577F4FAA
:1014CC00C5010E9489048C0D9D1D8C159D054CF445
:1014DC008FE490E080930640909307408FEF9FEF4E
:1014EC0003C06C01CECFC601CD57DF4FECE00C949E
:0214FC005C0F83
:1014FE000F931F93CF93DF93DB012D913C911197A7
:10150E0030FF25C017964D915C91189715962D9129
:10151E003C9116974217530778F41296ED91FC9171
:10152E001397808312962D913C9113972F5F3F4F07
:10153E0012962D933C93139717962D913C911897D5
:10154E002F5F3F4F17962D933C93189715C01D96FE
:10155E00ED91FC911E97309719F48FEF9FEF0CC011
:10156E008B01EC010995892BC1F7F80187819085D4
:10157E00019687839087CE01DF91CF911F910F91B6
:02158E000895BE
:101590001F920F920FB60F9211240BB60F922F933A
:1015A0003F934F935F936F937F938F939F93AF93EB
:1015B000BF93EF93FF93399B05C0E0914440F091B6
:1015C00045400995389B05C0E0914240F091434069
:1015D00009953A9B05C0E0914040F0914140099542
:1015E0003B9B05C0E0913A40F0913B4009958FEF5D
:1015F00087B9FF91EF91BF91AF919F918F917F91AB
:101600006F915F914F913F912F910F900BBE0F9073
:081610000FBE0F901F9018950A
:101618001F920F920FB60F9211240BB60F922F93B1
:101628003F934F935F936F937F938F939F93AF9362
:10163800BF93EF93FF938091430180FF07C0E09130
:101648004A40F0914B40309709F009958091430149
:1016580081FF07C0E0914840F0914940309709F078
:10166800099583E080934301FF91EF91BF91AF917A
:101678009F918F917F916F915F914F913F912F91A2
:0E1688000F900BBE0F900FBE0F901F90189585
:10169600CF92DF92EF92DC0190E0292F30E0220F0B
:1016A600331F6901032E000CEE086E2DA6014D5363
:1016B6005E4F6F4F6A01E62EFA015E2D0E942911D8
:1016C600862F611104C00E944910862F1BC0CD9041
:1016D600DD90EC901297F6015E2D0E94291186137B
:1016E6000CC00E944910962F5FEFC51AD50AE50A6D
:1016F600CD92DD92EC92129701C09F5F9B3008F469
:0C170600CCCF892FEF90DF90CF9008959A
:101712006F927F928F92CF92DF92EF92FF920F930E
:101722001F93CF93DF936C01FB013901842EC80113
:10173200C281D38104811581E080F180232B242B87
:1017420031F429EE622E21E0722E20E0822E0097E3
:1017520021F4882DB3010E94D60FD7FD04C0C8170B
:10176200D90708F4CE019C01682DA301C6010E948D
:10177200EB09DF91CF911F910F91FF90EF90DF90D6
:0A178200CF908F907F906F90089534
:10178C00E89404C097FB16F40E94AB109923A9F0BF
:10179C00F92F96E9BB279395F695879577956795DD
:1017AC00B795F111F8CFFAF4BB0F11F460FF1BC021
:1017BC006F5F7F4F8F4F9F4F16C0882311F096E9B4
:1017CC0011C0772321F09EE8872F762F05C0662362
:1017DC0071F096E8862F70E060E02AF09A95660F1B
:1017EC00771F881FDAF7880F9695879597F90895D4
:1017FC001F920F920FB60F9211240BB60F922F93CC
:10180C003F934F935F936F937F938F939F93AF937C
:10181C00BF93EF93FF93799B05C0E0913E40F0910D
:10182C003F4009957A9B05C0E0913C40F0913D40CA
:10183C0009958FEF8FB9FF91EF91BF91AF919F9168
:10184C008F917F916F915F914F913F912F910F905D
:0C185C000BBE0F900FBE0F901F90189550
:101868006F927F928F92CF92DF92EF920F931F9396
:10187800CF93DF938C016A01E62EE9013A01862EA7
:10188800620E731E811C37FD8A94C614D704E804BF
:1018980081F0F6015E2D0E942911862FB801082ECD
:1018A800000C990B0E947F0A8FEFC81AD80AE80A21
:1018B800ECCFCE01DF91CF911F910F91EF90DF9088
:0A18C800CF908F907F906F900895ED
:1018D2001F920F920FB60F9211240BB60F922F93F5
:1018E2003F934F935F936F937F938F939F93AF93A6
:1018F200BF93EF93FF938091C70184FF05C0E091EE
:101902003840F0913940099580E18093C701FF91F9
:10191200EF91BF91AF919F918F917F916F915F9165
:101922004F913F912F910F900BBE0F900FBE0F90D2
:041932001F90189555
:101936001F920F920FB60F9211240BB60F922F9390
:101946003F934F935F936F937F938F939F93AF9341
:10195600BF93EF93FF9382E080930D06E0913640AC
:10196600F0913740309709F00995FF91EF91BF91BB
:10197600AF919F918F917F916F915F914F913F9121
:101986002F910F900BBE0F900FBE0F901F901895C2
:101996001F920F920FB60F9211240BB60F922F9330
:1019A6003F934F935F936F937F938F939F93AF93E1
:1019B600BF93EF93FF9381E080930D06E09134404F
:1019C600F0913540309709F00995FF91EF91BF915D
:1019D600AF919F918F917F916F915F914F913F91C1
:1019E6002F910F900BBE0F900FBE0F901F90189562
:1019F6001F920F920FB60F9211240BB60F922F93D0
:101A06003F934F935F936F937F938F939F93AF9380
:101A1600BF93EF93FF93E0914640F0914740309794
:101A260009F0099581E080935301FF91EF91BF91F1
:101A3600AF919F918F917F916F915F914F913F9160
:101A46002F910F900BBE0F900FBE0F901F90189501
:101A5600E0ECF1E0158281E086831782118612861A
:101A660015861686118A128A158A168A118E85E0BF
:101A7600828F158E168E1182128213821386178616
:101A8600138A178A80E1838F178E10861486108A30
:101A9600148A8DEA808F148E81E480838BEE91E127
:0C1AA600809338409093394080E0089510
:101AB200E0E6F8E083E896E080879187158280EC83
:101AC200868383E08783138614861686158684EFC1
:101AD20091E1809304409093054083EF91E18093DC
:101AE20002409093034082EF91E1809300409093F3
:101AF200014010924C4010924D40E0914E40F091C6
:0C1B02004F4083E290E4808391830895BB
:101B0E0060E080E60E94AB1181E60E94AB1185E693
:101B1E000E94AB1188E790E00E94BA116CE088E653
:101B2E000E94AB1189E60E94AB1180E70E94AB11B7
:101B3E008CE70E94AB1182E60E94AB1183E60E94F5
:101B4E00AB1184E60E94AB1180E890E00E94BA11BE
:0A1B5E008091650081FFFCCF08951F
:101B6800809113078077803241F4809113078F7832
:101B780080618093130785E119C0809112078295CF
:101B88008695877091E0980F983039F48091130703
:101B98008F7880628093130790E080911207282F36
:101BA8002F7130E2939FC0011124822B809312077A
:0A1BB8000E94FF108823E1F3089556
:101BC200CF93DF93DC01EB010E94F1106A3221F026
:101BD20080E090E07AE00BC00E94E310E881F98196
:101BE200CF010296888399838081918111C00E94DE
:101BF200F11060536A3060F4789FF001799FF00D24
:101C02001124CF01860F911D0E94E3101297EFCF8E
:061C1200DF91CF9108955F
:101C18000E94620E88F09F5798F0B92F9927B75104
:101C2800B0F0E1F0660F771F881F991F1AF0BA9578
:101C3800C9F714C0B13091F00E942211B1E00895A3
:101C48000C942211672F782F8827B85F39F0B93F95
:101C5800CCF3869577956795B395D9F716F40E94D6
:041C6800AB10089520
:101C6C00990F0008550FAA0BE0E8FEEF16161706A1
:101C7C00E807F907C0F012161306E407F50798F009
:101C8C00621B730B840B950B39F40A2661F0232B22
:101C9C00242B252B21F408950A2609F4A140A6959E
:081CAC008FEF811D811D0895D9
:101CB40057FD9058440F551F59F05F3F71F04795F9
:101CC400880F97FB991F61F09F3F79F087950895DE
:101CD400121613061406551FF2CF4695F1DF08C0FD
:101CE400161617061806991FF1CF8695710561051A
:041CF40008940895B3
:101CF800FA0160387105CCF0623871051CF0633860
:101D0800710599F4A081B1819D012C5F3F4F20831B
:101D180031834D915D916D917C91FC01408351839C
:101D28006283738381E090E0089580E090E00895F5
:101D380097FB10F8169400080F93083098F0085095
:101D4800232F342F452F562F672F782F892F902D2B
:101D5800F4CF059497958795779567955795479507
:0C1D6800379527950A95AAF70F9108956A
:101D7400E0E4F1E0809141018111FACF8FEF93E02B
:101D840084879587108611868FEF97E082879387E3
:101D940081E08093470110924201809151018111A9
:081DA400FCCF109252010895DA
:101DAC00E0E0F6E0118212821382148281E08687D1
:101DBC008387848782E0808780E4818784E68583BB
:101DCC008FEF9FE0848B958B128A138A81E8808336
:041DDC0080E0089506
:101DE0000E943C11E0E0F7E083E0828311821786D5
:101DF00080E2838B128A85E8808B8FE7848B138E39
:101E0000128E92E0908F848F13A212A290A384A3CB
:041E10000C943611E7
:101E1400809113078077803239F080911207829580
:101E2400869587708F5F01C080E090E0FC01EE0F23
:101E3400FF1F8E0F9F1FFC01E85FFF4B60817181C4
:041E440082810895FA
:101E48002F923F924F925F926F927F928F929F92C2
:101E5800AF92BF92CF92DF92EF92FF920F931F93B0
:101E6800CF93DF93CDB7DEB7CA1BDB0BCDBFDEBF89
:021E78000994CB
:101E7A00A0E0B0E0E3E4FFE00C94340F9E012B5F96
:101E8A003F4FF9014191519161919F01E0914E407B
:101E9A00F0914F40808191810E946E0FE2E00C9494
:021EAA00660FC1
:101EAC002A88398848885F846E847D848C849B84DE
:101EBC00AA84B984C884DF80EE80FD800C811B81EC
:101ECC00AA81B981CE0FD11DCDBFDEBFED01089522
:101EDC00A2E0B0E0E4E7FFE00C94320F8C01298320
:101EEC003A839E012F5F3F4F0E94360AF8012081F2
:101EFC0024FF02C08FEF9FEF2296E4E00C94640F56
:101F0C000E94B8060E94D60E0E942B0D0E94870DCF
:101F1C000E9495090E94F00E0E94BA0E0E940810B1
:0C1F2C000E94590D0E94CB100C94241050
:101F380097FB072E16F4009407D077FD09D00E946E
:101F4800B00F07FC05D03EF4909581959F4F0895FA
:081F5800709561957F4F08951B
:101F6000AA1BBB1B51E107C0AA1FBB1FA617B707BF
:101F700010F0A61BB70B881F991F5A95A9F78095DB
:081F80009095BC01CD0108950C
:101F8800F60180819181A2819C014A2F2F5F3F4FEA
:101F98004F4F208331834283FC015A2F0E9429111D
:041FA800262F089543
:101FAC009B01482FA82FCB01FC015A2F0E9429110D
:101FBC00662319F00196A11DF7CF642FA901841B8C
:041FCC00950B0895D4
:101FD000092E0394000C11F4882352F0BB0F40F437
:101FE000BF2B11F460FF04C06F5F7F4F8F4F9F4F77
:021FF000089552
:101FF2002A8D022E000C330B2154310989819A81DA
:0E2002004A895B89840F951F2A3131050895A4
:1020100043E068ED80E590E00E94A61140E068EDA5
:0C20200081E590E00E94A61180E0089588
:10202C009A01462FDC01F901542F0E9429116D935E
:0C203C002F5F3F4F4F4F6111F6CF08950A
:1020480040E468ED80E191E00E94A611E0E1F1E052
:0A20580012821382789480E008954C
:10206200CF93C82F0E944E118823E1F3C0936208D8
:0820720080E090E0CF91089599
:10207A000024A7FD00942A0F301D401D501D601D2D
:08208A00701D801D901D0895DA
:102092002F5F3F4F032E000C440B2D533E4F4F4FEB
:0620A2000E947411089574
:1020A8000E94CA110E94D4076C8F7D8F8E8F9F8FDC
:0620B8000E940D110895C5
:1020BE00EC010E94F6110E94F511CE010E94F7115B
:0620CE00CE010E94E911A1
:1020D400F60180819181A2810196A11D8083918363
:0420E400A283089536
:1020E8008091410180FDFCCF8091400181688093FF
:0420F8004001089506
:1020FC0020E030E040E85BE7C701B6010E94071121
:02210C00089534
:10210E00F60180819181A281FC015A2F0E94291132
:02211E00089522
:10212000612F70E0A701CE010B960E947C0E892BD7
:02213000089510
:10213200108A118A128A138A148A158A168A178AB1
:022142000895FE
:10214400FC01480F591FE417F50711F06193FBCF09
:022154000895EC
:1021560090958095709561957F4F8F4F9F4F08950D
:102166000E946A10D701ED91FC911197CF01089555
:10217600612F70E0970140E050E00E943011089511
:10218600AE01455F5F4FBE016F5F7F4FC40108958B
:10219600E0EBF0E0148285E08083128280E008950F
:1021A6000E9454118823E1F380E480936408089523
:1021B6009C01215431092A31310508F480620895C1
:0E21C6002F5F3F4F4F4F2D933D934C93089545
:0E21D4000196A11DF60180839183A2830895D8
:0E21E2002D913D914C9112970E947411089519
:0E21F0006C8D7D8D8E8D9F8D0E942006089532
:0E21FE009091110781E0911101C080E00895D9
:0E220C005058BB27AA270E9430090C94E80FF7
:0E221A000E940C0E6894B1110C9423110895CB
:0E22280000240A9416161706180609060895D3
:0E22360000240A9412161306140605060895D5
:0E224400E894BB2766277727CB0197F908950A
:0E22520057FD03C05BBF67910895608108953A
:0C226000CE010B960E940000892B08950F
:0C226C00E0E0F7E080818160808308954D
:0C227800E0E0F7E080818E7F8083089515
:0C228400E0E4F1E0808181608083089537
:0C229000E0E4F1E080818E7F80830895FF
:0C229C008091640885FB882780F9089574
:0C22A8008091640886FB882780F9089567
:0C22B40097F99F6780E870E060E00895F3
:0A22C000612F7C2D8D2D9F2D0895B8
:0A22CA0077956795B795F79508958D
:0A22D4000E94C40F0E94C310089579
:0A22DE000E946A100E94C3100895C8
:0A22E800F901542F0E9429110895F6
:0A22F2000E947E11C501B401089599
:0A22FC0020E030E040E251E40895D4
:0A23060080911006909111060895D1
:0A2310008093344090933540089507
:0A231A0080933840909339400895F5
:0A2324008F938FEF83B98F91189506
:0A232E008F938FEF8BB98F911895F4
:0A2338008F938FEF83BB8F911895F0
:0A2342008F938FEF87BB8F911895E2
:0A234C001BBEFC0164BF408308952E
:0A23560090E00E94BA1160E00895C3
:0A2360000E94360E08F481E0089593
:0A236A000E94360E08F48FEF08956C
:08237400462F68ED0C94A61140
:08237C000E9448110C94C611E7
:0823840081E0809353400895AD
:08238C0081E0809352400895A6
:082394000E945B080C94E80FA5
:08239C000E94C8080C94E80F30
:0623A4000E946A1008957A
:0623AA0080936208089513
:0623B00010925340089555
:0623B600809153400895E0
:0623BC001092524008954A
:0623C200809152400895D5
:0623C8009FEF80EC089578
:0423CE000C9400006B
:0423D2000E94B300B2
:0223D600089568
:0223D800089566
:0223DA00089564
:0223DC00089562
:0223DE00089560
:0223E00008955E
:0223E20008955C
:0223E40008955A
:0223E600089558
:0223E800089556
:0223EA00089554
:0223EC00089552
:0223EE00089550
:1023F000A40100A60100AB0100B00100B50100B7C7
:0B2400000100BC0100BE0100C0010093
:10240B00030000000000000000000000003110007D
:01241B0000C0
:02241C0050402E
:02000004008278
:090000000000000000C00800002F
:00000001FF
