:100000000C9483000C94C3080C94C3080C94C3088C
:100010000C94C3080C94C3040C944E060C947E06F6
:100020000C94F5070C94C3080C94C3080C94C308F3
:100030000C94C3080C94C3080C94C3080C94C30814
:100040000C94C3080C94C3080C94C3080C94C30804
:100050000C94C3080C94C3080C94C3080C94C308F4
:100060000C94B7050C94C3080C94D8060C941E0687
:100070000C94C3080C94C3080C9403080C94C30894
:100080000C94C3080C94C3080C94C3080C941F0868
:100090000C94C3080C94C3080C94C3080C94C308B4
:1000A0000C94C3080C94C3080C94C3080C94C308A4
:1000B0000C94C3080C9402050C9411080C94C3080A
:1000C0000C94C3080C94C3080C94C3080C94C30884
:1000D0000C94C3080C94C3080C94C3080C94C30874
:1000E0000C94C3080C94C3080C94C3080C94C30864
:1000F0000C94C30840004006804006403000119434
:1001000040304044800011241FBECFEFCDBFDFE759
:10011000DEBFE4EFF0E041E019C0B791A79137915D
:100120002791079107FD0EC097918791EF01F92F55
:10013000E82F0BBF07900D92A217B307D9F7FE0166
:100140001BBE04C01D92A217B307E1F7E530F40708
:0E01500021F70E94A8030C94AD00F894FFCF95
:10015E004E6577204761696E3A2025730A0D0A0DA8
:10016E000043757272656E74204761696E3A202580
:10017E00730A0D004D6561737572656D656E742041
:10018E00287369676E6564293A20307825580A0D00
:10019E000A0D003100312E303700312E313400314E
:1001AE002E3333003200322E363700340038003111
:0201BE00360009
:1001C0002F923F924F926F927F928F929F92AF9217
:1001D000BF92CF92DF92EF92FF920F931F93CF9334
:1001E000DF93CDB7DEB76297CDBFDEBF6C013A01BA
:1001F000862E7901FC0117821086848181FFEBC174
:100200009E012F5F3F4F2C873D87C901A0E8888B57
:10021000998BAA8B9FE3992EF301582D0E946408B5
:10022000862F662309F4D3C1482D93012F5F3F4FDA
:100230004F4F653219F03901842E0BC0F901542F4C
:100240000E946408862F92E0690E711C811C653241
:1002500029F4B60190E00E947B05DECFB12C00E0CE
:1002600010E01032A0F48B3269F030F4803259F093
:10027000833269F410612CC08D3239F0803339F447
:10028000116026C01260146023C0186021C017FDE1
:100290002AC090ED980F9A3078F416FF06C0AAE0B5
:1002A000BA9E900D1124B92E13C0EAE00E9F900D56
:1002B0001124092F10620CC08E3221F416FD87C163
:1002C000106406C08C3611F4106802C0883659F4E8
:1002D000F301582D0E946408862FFFEF6F1A7F0AE2
:1002E0008F0A6111BECF982F9F7D9554933028F4CB
:1002F00024E0E20EF11C99820FC0833631F083377F
:1003000091F0833509F064C027C0F70180818983AB
:1003100097012E5F3F4F7901288839884A88AA249F
:10032000A394B12C17C0A7014D5F5F4F4E875F8725
:10033000F70120803180428016FF03C04B2D50E032
:1003400002C04FEF5FEF842DB1010E944D075C01A9
:10035000EE84FF841F7718C097012D5F3F4F2E87D3
:100360003F87F70120803180428016FF03C04B2D6C
:1003700050E002C04FEF5FEF842DB1010E944D07A6
:100380005C011068EE84FF8413FD1EC0802F90E096
:10039000A816B906C8F4B60180E290E00E947B0579
:1003A0000150F4CFF101542D0E946408862FFFEF15
:1003B0002F1A3F0A4F0AB60190E00E947B050111F7
:1003C000015021E0A21AB108A114B10459F7F5C0F7
:1003D000843611F0893671F5F70117FF08C0608186
:1003E00071818281938197012C5F3F4F09C06081A9
:1003F0007181072E000C880B990B97012E5F3F4FE0
:1004000079011F76312E97FF0AC0909580957095DF
:1004100061957F4F8F4F9F4F312F3068332E2AE0E9
:1004200030E0AE014F5F5F4F0E940F04482E4C85B5
:10043000441A4AC0853729F41F7EA12E2AE030E0F5
:1004400025C0512F597FA52E8F36C1F018F488355D
:1004500079F0BDC0803719F0883721F0B8C0852FFA
:100460008061A82EA4FE0DC09A2D9460A92E09C00B
:1004700014FF0AC0A52FA660AA2E06C028E030E00F
:1004800005C020E130E002C020E132E0F701A7FE24
:1004900008C06081718182819381A7014C5F5F4FA9
:1004A00007C06081718180E090E0A7014E5F5F4FDF
:1004B0007A01AE014F5F5F4F0E940F04482E5C85AA
:1004C000451A8A2D8F77382E36FE0DC0932D9E7FCC
:1004D000A92E4B1458F434FE0BC032FC09C0A32DD6
:1004E000AE7EAA2E05C0142DA32C03C0142D01C06E
:1004F0001B2DA4FE0EC0FE01E40DF11D8081803392
:1005000021F4EA2DE97EAE2E08C0A2FE05C01E5FD2
:1005100004C08A2D867809F01F5FA3FC11C0A0FEDD
:1005200006C0101788F4040DB02EB11A0EC01017B3
:1005300060F4B60180E290E00E947B051F5FF7CF78
:10054000101718F4011B02C0B42C00E0A4FE10C068
:10055000B60180E390E00E947B05A2FE17C0A1FCDB
:1005600003C088E790E002C088E590E0B6010CC0C7
:100570008A2D867859F0A1FE02C08BE201C080E28C
:10058000A7FC8DE2B60190E00E947B054B1438F485
:10059000B60180E390E00E947B05BA94F7CF4A94BD
:1005A000E1E0F0E0EC0FFD1FE40DF11D8081B601EC
:1005B00090E00E947B054110F2CF002309F42CCE7D
:1005C000B60180E290E00E947B050150F6CFF60173
:1005D0008781908502C08FEF9FEF6296CDBFDEBF0F
:1005E000DF91CF911F910F91FF90EF90DF90CF900F
:1005F000BF90AF909F908F907F906F904F903F9063
:040600002F9008959A
:100604000F931F93CF93DF930E94ED0540E054E0D6
:10061400FA01108220E234E089E0F901808380E469
:1006240094E0FC011082C0E6D4E01882A0E8B4E0B3
:100634001C9200EA14E0F8011082FA01148261E0CD
:10064400F9016483FC0114821C8214961C92149791
:10065400F8011482FA010E947D08F901108A118AB6
:1006640068E8628B0E947708FC010E947D08188A62
:1006740064E0698B6A8B1B8A1C8A1D8A1E8A1F8A06
:1006840050961C92509751961C92519752961C92D8
:10069400529753961C92539754961C92549755967E
:1006A4001C92559756961C92569757961C9257979C
:1006B400F8010E947D08FA010E949A08F9010E943B
:1006C4009A08FC010E949A081B861E861D861C86B9
:1006D4001B961C921B971E961C921E971D961C928D
:1006E4001D971C961C92F8010E949A08E0EEF5E012
:1006F4001186118210821482168217821086158246
:1007040012821382128687EC98E080933A40909389
:100714003B4088EC98E0809338409093394089ECD2
:1007240098E0809336409093374086EC98E080932D
:1007340034409093354085EC98E080933240909318
:0C0744003340DF91CF911F910F91089579
:100750000E94B4071092000681E080930B0681E8A6
:10076000809300060E94830880E00E94B408D8E0CD
:100770008FE6C82E81E0D82E80E0E82E92E8692E20
:1007800091E0792E90E0892E2EE5222E21E0322E66
:1007900020E0422EC0E40E94C0088823B9F00E94E5
:1007A000BD080E94AB060E9483078F937F936F93CF
:1007B0004F923F922F920E94E0070E9483080F9071
:1007C0000F900F900F900F900F9020C00E94BA08CA
:1007D0008823E1F00E94B708D09327040E94830782
:1007E0008F937F936F93EF92DF92CF920E94E007F7
:1007F0000E9495089F938F938F927F926F920E9491
:10080000E0078DB79EB70B968DBF9EBF0E9446082E
:0E0810008111FCCFC093640888950000BCCF16
:10081E00FA01AA27283051F1203181F1E8946F9323
:10082E006E7F6E5F7F4F8F4F9F4FAF4FB1E03ED0C9
:10083E00B4E03CD0670F781F891F9A1FA11D680F67
:10084E00791F8A1F911DA11D6A0F711D811D911D9A
:10085E00A11D20D009F468943F912AE0269F11240F
:10086E003019305D3193DEF6CF010895462F477073
:10087E00405D4193B3E00FD0C9F7F6CF462F4F70CE
:10088E00405D4A3318F0495D31FD4052419302D02C
:10089E00A9F7EACFB4E0A6959795879577956795D2
:1008AE00BA95C9F700976105710508959B01AC01D2
:1008BE000A2E06945795479537952795BA95C9F7F9
:0C08CE00620F731F841F951FA01D08956A
:1008DA00E0E0F2E08BE0808B84E2818B128A0E9456
:1008EA007708108E118E81E08083118284A710A26E
:1008FA0011A212A213A214A215A216A217A210A63E
:10090A0011A612A613A615A616A617A610AA11AA0C
:10091A0012AA10924B0210924D0210924C0210929F
:10092A004A0210924F0210925102109250021092F3
:10093A004E021092530210925502109254021092D3
:10094A00520212AE13AE14AE15AE16AE17AE109218
:10095A0040021092410210924202109243021092F7
:10096A00440210924502109248021092490214AAB7
:0C097A0015AA16AA17AA10AE80E0089576
:100986001F920F920FB60F9211240BB60F922F9350
:100996003F934F935F936F937F938F939F93AF9301
:1009A600BF93EF93FF938091430180FF07C0E091CF
:1009B6004040F0914140309709F0099580914301FC
:1009C60081FF07C0E0913E40F0913F40309709F02B
:1009D600099583E080934301FF91EF91BF91AF9119
:1009E6009F918F917F916F915F914F913F912F9141
:0E09F6000F900BBE0F900FBE0F901F90189524
:100A04001F920F920FB60F9211240BB60F922F93D1
:100A14003F934F935F936F937F938F939F93AF9382
:100A2400BF93EF93FF93389B05C0E0913A40F09158
:100A34003B4009953A9B05C0E0913840F09139401C
:100A440009953B9B05C0E0913240F09133400995F4
:100A54008FEF87B9FF91EF91BF91AF919F918F91E4
:100A64007F916F915F914F913F912F910F900BBEAA
:0A0A74000F900FBE0F901F90189511
:100A7E0060E080E690E00E94A80860E081E690E0E9
:100A8E000E94A80860E085E690E00E94A80860E059
:100A9E0088E790E00E94A80860E088E690E00E9457
:100AAE00A80860E089E690E00E94A80860E080E770
:100ABE0090E00E94A80860E08CE790E00E94A808F1
:100ACE0060E082E690E00E94A80860E083E690E095
:100ADE000E94A80860E084E690E00E94A80860E00A
:080AEE0080E890E00C94A808D8
:100AF6000F931F93CF93DF93FB01248121FD03C046
:100B06008FEF9FEF2CC022FF16C0478150852581AD
:100B160036814217530744F4A081B1819D012F5FAE
:100B26003F4F208331838C93278130852F5F3F4F42
:100B36002783308714C08B01EC01FB010184F28509
:100B4600E02D0995892BE1F6D80117968D919C9198
:100B56001897019617968D939C931897CE01DF915F
:080B6600CF911F910F9108953A
:100B6E001F920F920FB60F9211240BB60F922F9366
:100B7E003F934F935F936F937F938F939F93AF9317
:100B8E00BF93EF93FF93799B05C0E0913640F091B0
:100B9E00374009957A9B05C0E0913440F09135407D
:100BAE0009958FEF8FB9FF91EF91BF91AF919F9103
:100BBE008F917F916F915F914F913F912F910F90F8
:0C0BCE000BBE0F900FBE0F901F901895EB
:100BDA00E0E1F4E00E94A408E83184E0F807D1F7E4
:100BEA00E0E3F4E00E94A408E83384E0F807D1F7D0
:100BFA00E0E5F4E00E94A408E83584E0F807D1F7BC
:100C0A00E0E7F4E00E94A408E83784E0F807D1F7A7
:100C1A00E0E9F4E00E94A408E83984E0F807D1F793
:100C2A00E0EBF4E00E94A408E83B84E0F807D1F77F
:020C3A0008951B
:100C3C001F920F920FB60F9211240BB60F922F9397
:100C4C003F934F935F936F937F938F939F93AF9348
:100C5C00BF93EF93FF93E0913040F0913140309788
:100C6C0009F0099582E080930D06FF91EF91BF91F9
:100C7C00AF919F918F917F916F915F914F913F9128
:100C8C002F910F900BBE0F900FBE0F901F901895C9
:100C9C001F920F920FB60F9211240BB60F922F9337
:100CAC003F934F935F936F937F938F939F93AF93E8
:100CBC00BF93EF93FF93E0913C40F0913D40309710
:100CCC0009F0099581E080935301FF91EF91BF9159
:100CDC00AF919F918F917F916F915F914F913F91C8
:100CEC002F910F900BBE0F900FBE0F901F90189569
:100CFC001F920F920FB60F9211240BB60F922F93D7
:100D0C003F934F935F936F937F938F939F93AF9387
:100D1C00BF93EF93FF930E9489080E94B00880E173
:100D2C008093C701FF91EF91BF91AF919F918F91EC
:100D3C007F916F915F914F913F912F910F900BBECF
:0A0D4C000F900FBE0F901F90189536
:100D5600809113078077803241F4809113078F7852
:100D660080618093130785E119C0809112078295EF
:100D76008695877091E0980F983039F48091130723
:100D86008F7880628093130790E080911207282F56
:100D96002F7130E2939FC0011124822B809312079A
:0A0DA6000E9456088823E1F3089527
:100DB0001F920F920FB60F9211240BB60F922F9322
:100DC0003F934F935F936F937F938F939F93AF93D3
:100DD000BF93EF93FF930E94AC0881E080930D06D0
:100DE000FF91EF91BF91AF919F918F917F916F9103
:100DF0005F914F913F912F910F900BBE0F900FBEBF
:060E00000F901F901895F1
:100E0600E0ECF1E0158281E0868317821186128676
:100E160015861686118A128A158A168A118E85E01B
:100E2600828F158E168E1182128213821386178672
:100E3600138A178A80E1838F178E10861486108A8C
:100E4600148A8DEA808F148E81E4808380E0089571
:100E5600E0E4F1E0809141018111FACF8FEF93E058
:100E660084879587108611868FEF97E08287938710
:100E760081E0809347011092420180934001809166
:100E860051018111FCCF1092520181E080935001F3
:040E960080E008955B
:100E9A00CF92DF92EF926B01E82E9A01A82FCB0135
:100EAA002115310531F48C199D09EF90DF90CF900F
:100EBA000895FC015A2F0E9464086623A1F3019643
:080ECA00A11D21503109ECCFFC
:100ED2000E947108E0E0F7E081E082838183178657
:100EE20080E2838B128A85E8808B8FE7848B138E56
:100EF200128E92E0908F848F13A212A290A384A3E9
:040F02000C946B08D8
:100F0600809113078077803239F08091120782959D
:100F1600869587708F5F01C080E090E0FC01EE0F40
:100F2600FF1F8E0F9F1FFC01EA5FFF4B60817181DF
:040F36008281089517
:100F3A00E0E0F6E01182128213821482168613868A
:100F4A0081E0848792E0908790E4918794E6958384
:0E0F5A00148A158A128A138A808380E0089513
:100F68000E9402030E949D070E9403070E943F05FA
:100F78000E946D040E9469070E942B070E945D0869
:0C0F88000E94CA070E944E080C942D081D
:100F9400E0E6F8E081EA91E080879187158280E4B9
:100FA400868383E08783138614861686158681E2FA
:0C0FB40090E48093024090930340089565
:100FC000CF93DF93CDB7DEB79E012B5F3F4FF90183
:100FD0004191519161919F01809102409091034014
:0A0FE0000E94E000DF91CF91089518
:100FEA001F920F920FB60F9211248F938FEF83B92E
:0C0FFA008F910F900FBE0F901F90189564
:101006001F920F920FB60F9211248F938FEF8BB909
:0C1016008F910F900FBE0F901F90189547
:101022001F920F920FB60F9211248F938FEF83BBF3
:0C1032008F910F900FBE0F901F9018952B
:10103E001F920F920FB60F9211248F938FEF87BBD3
:0C104E008F910F900FBE0F901F9018950F
:10105A0040E068ED80E191E00E949F08E0E1F1E064
:0A106A0012821382789480E008954A
:10107400CF93C82F0E948F088823E1F3C09362089E
:0810840080E090E0CF91089597
:10108C008091640886FB882780F991E08927089570
:10109C00E0EBF0E0148285E08083128280E008951A
:0E10AC009091110781E0911101C080E008953C
:0E10BA00E0E5F0E083E08083118280E008959D
:0E10C80057FD03C05BBF6791089560810895D6
:0C10D600E0E0F7E08081816080830895F5
:0C10E200E0E0F7E080818E7F80830895BD
:0C10EE00138A148A158A168A178A08953E
:0C10FA00108A118A128A0E94770808955B
:0C110600E0E4F1E08081816080830895C6
:0C111200E0E4F1E080818E7F808308958E
:0C111E008091640885FB882780F9089503
:0A112A0080911006909111060895BF
:0A11340013861686158614860895AA
:0A113E001BBEFC0164BF408308954E
:08114800808188608193089505
:08115000462F68ED0C949F0886
:0811580081E0809343400895FB
:0811600081E0809342400895F4
:0611680080936208089567
:06116E00109243400895B9
:0611740080914340089544
:06117A00109242400895AE
:0611800080914240089539
:041186000C940000C5
:02118A000895C6
:02118C000895C4
:02118E000895C2
:021190000895C0
:021192000895BE
:10119400A10100A30100A80100AD0100B20100B447
:0B11A4000100B90100BB0100BD01000B
:0F11AF000000000002000000003A0800000000ED
:02000004008278
:090000000000000000C00C00002B
:00000001FF
