:100000000C9483000C94C00C0C94C00C0C94C00C89
:100010000C94C00C0C940B080C94CE090C94FE09A3
:100020000C94A80B0C94C00C0C94C00C0C94C00C39
:100030000C94C00C0C94C00C0C94C00C0C94C00C10
:100040000C94C00C0C94C00C0C94C00C0C94C00C00
:100050000C94C00C0C94C00C0C94C00C0C94C00CF0
:100060000C9437090C94C00C0C94580A0C949E09FB
:100070000C94C00C0C94C00C0C94B60B0C94C00CDB
:100080000C94C00C0C94C00C0C94C00C0C94D20BAF
:100090000C94C00C0C94C00C0C94C00C0C94C00CB0
:1000A0000C94C00C0C94C00C0C94C00C0C94C00CA0
:1000B0000C94C00C0C944A080C94C40B0C94C00C07
:1000C0000C94C00C0C94C00C0C94C00C0C94C00C80
:1000D0000C94C00C0C94C00C0C94C00C0C94C00C70
:1000E0000C94C00C0C94C00C0C94C00C0C94C00C60
:1000F0000C94C00C40004006804006403000198E31
:1001000040304044800011241FBECFEFCDBFDFE759
:10011000DEBFE4EFF0E041E019C0B791A79137915D
:100120002791079107FD0EC097918791EF01F92F55
:10013000E82F0BBF07900D92A217B307D9F7FE0166
:100140001BBE04C01D92A217B307E1F7E530F40708
:0E01500021F70E9474060C94AD00F894FFCFC6
:10015E004E6577204761696E3A2025730A0D0A0DA8
:10016E000043757272656E74204761696E3A202580
:10017E00730A0D004D656173757265643A20253101
:10018E002E3366560A0D0A0D003100312E3037001F
:10019E00312E313400312E3333003200322E3637C9
:0801AE00003400380031360076
:0801B600696E66006E616E00C7
:1001BE002F923F924F925F926F927F928F929F9269
:1001CE00AF92BF92CF92DF92EF92FF920F931F9357
:1001DE00CF93DF93CDB7DEB76497CDBFDEBF6C0193
:1001EE001A01462E5901FC0117821086848181FF67
:1001FE0040C3CE0101968C879D87A0E88A8B9B8B8E
:10020E00AC8BF101542D0E94440C862F662309F409
:10021E002CC3442D91012F5F3F4F4F4F653219F084
:10022E001901442E0BC0F901542F0E94440C862F45
:10023E0092E0290E311C411C653249F4B60190E062
:10024E000E94C308AE86BF86AE84BF84DACF10E0AC
:10025E00F12C00E00032A0F48B3269F030F48032E1
:10026E0059F0833269F400612CC08D3239F080333D
:10027E0039F4016026C00260046023C0086021C00A
:10028E0007FD2AC090ED980F9A3078F406FF06C04D
:10029E00AAE01A9F900D1124192F13C0EAE0FE9EBA
:1002AE00900D1124F92E00620CC08E3221F406FD41
:1002BE00DCC2006406C08C3611F4006802C08836B9
:1002CE0059F4F101542D0E94440C862FFFEF2F1A82
:1002DE003F0A4F0A6111BECF9BEB980F933018F473
:1002EE000061805E06C09BE9980F933008F065C1EF
:1002FE000F7E06FF16E00F73702E853621F4202F29
:10030E002064722E08C0863621F4802F8068782EE5
:10031E0002C01111115077FE07C01C3350F4EE24A9
:10032E00E394E10E27E00BC0183038F027E017E019
:10033E0005C027E06CE3E62E02C0212FE12CF5016B
:10034E003496EE87FF87F5016081718182819381FA
:10035E000E2DAE014F5F5F4F0E9481045C015980EC
:10036E0050FE02C053FE06C071FC06C072FE06C0EF
:10037E0000E205C00DE203C00BE201C000E0852DD6
:10038E008C7019F001114EC298C277FE0FC0EA0CA4
:10039E0054FE04C08A81813309F4EA941E1474F564
:1003AE0028E02E1578F538E0E32E2CC076FC2AC016
:1003BE00812F90E08A159B059CF08CEFA8168FEF8D
:1003CE00B80674F0972D9068792E0AC0E2E0F0E03E
:1003DE00EC0FFD1FE10FF11D8081803319F41150D8
:1003EE001111F4CF77FE0EC0EE24E394E10E812FAF
:1003FE0090E0A816B9062CF41A1904C0EE24E39462
:10040E0001C010E077FE06C01A141B0434F4C501B7
:10041E00019605C085E090E002C081E090E00111F8
:10042E000196112331F0212F30E02F5F3F4F820FC5
:10043E00931F2F2D30E08217930714F4F81A01C082
:10044E00F12C872D897041F4FF2031F00E94960C1B
:10045E000E94C308FA94F8CF002329F0B601802F2A
:10046E0090E00E94C30873FC09C0FF2039F0B6016A
:10047E0080E390E00E94C308FA94F7CF77FE49C05C
:10048E003501B7FE02C0612C712CC5018619970982
:10049E0088248394912C8C0E9D1E880E991EF50136
:1004AE00EE19F109E88BF98B012F10E011950195EA
:1004BE001109FFEF6F167F0629F4B6018EE290E068
:1004CE000E94C308A614B70444F08889998986153A
:1004DE0097051CF4F401818101C080E3F1E06F1AED
:1004EE0071082FEF821A920A601671062CF0B6016F
:1004FE0090E00E94C308DDCFA614B70439F49A81A8
:10050E00963318F4953311F454FE81E3B60190E05E
:10051E0051C08A81813319F0952D9F7E592EB601D7
:10052E0090E00E94C308111105C074FC1CC085E642
:10053E0090E01BC0B6018EE290E00E94C30802E07C
:10054E00010F82E011E0180FE1E0F0E0EC0FFD1F6B
:10055E00E80FF11D8081B60190E00E94C308812F43
:10056E001013F0CFE2CF85E490E0B6010E94C308ED
:10057E00B7FC05C0A114B10439F454FE05C0B19402
:10058E00A194B1088DE201C08BE2B60190E00E9409
:10059E00C30880E3EAE0AE16B1042CF08F5FAAE048
:1005AE00AA1AB108F7CFB60190E00E94C308B601AF
:1005BE00C501C0960E94C3084FC1833631F0833700
:1005CE0091F0833509F051C01EC0C50102968E8789
:1005DE009F87F501808189836A887B888C88AA240D
:1005EE00A394B12C0EC00E94F90B06FF03C0412F3D
:1005FE0050E002C04FEF5FEF882DB3010E94EF0A6B
:10060E005C010F770FC00E94F90B06FF03C0412F4C
:10061E0050E002C04FEF5FEF882DB3010E94EF0A4A
:10062E005C01006803FD1DC08F2D90E0A816B90671
:10063E00C0F40E94960C0E94C308FA94F5CFF30101
:10064E00582D0E94440C862FFFEF6F1A7F0A8F0AD7
:10065E00B60190E00E94C308F110FA9421E0A21AAC
:10066E00B108A114B10459F7F7C0843611F08936D8
:10067E0009F5C50107FF03C00E944B0C07C0029687
:10068E000E94510C072E000C880B990B0F76E02E52
:10069E0097FF05C00E94020CF02FF068EF2E2AE0A3
:1006AE0030E0AE014F5F5F4F0E945707A82E2C859A
:1006BE00A21A42C0853729F40F7EE02E2AE030E0E0
:1006CE0025C0902F997FE92E8F36C1F018F488350A
:1006DE0079F0CBC0803719F0883721F0C6C0A92F2A
:1006EE00A061EA2EE4FE0DC0EE2DE460EE2E09C0F0
:1006FE0004FF0AC0F92FF660EF2E06C028E030E0A6
:10070E0005C020E130E002C020E132E0C501E7FE85
:10071E0003C00E944B0C05C002960E94510C80E053
:10072E0090E0AE014F5F5F4F0E945707A82EFC85E9
:10073E00AF1A2E2D2F77E22EE6FE0BC00E2D0E7F5A
:10074E00A11650F4E4FE0AC0E2FC08C00E2D0E7E87
:10075E0005C0BA2C0E2D03C0BA2C01C0B12E04FF59
:10076E000DC0FE01EA0DF11D8081803311F4097E6A
:10077E0009C002FF06C0B394B39404C0802F8678DC
:10078E0009F0B39403FD10C000FF06C0BF1480F43F
:10079E00FA0C1F2D1B190DC0BF1458F40E94960C95
:1007AE000E94C308B394F8CFBF1418F4FB1802C00C
:1007BE001A2DF12C04FF10C0B60180E390E00E94C8
:1007CE00C30802FF17C001FD03C088E790E002C016
:1007DE0088E590E0B6010CC0802F867859F001FFB5
:1007EE0002C08BE201C080E207FD8DE2B60190E00F
:1007FE000E94C308A11638F4B60180E390E00E946F
:10080E00C3081150F7CFAA94E1E0F0E0EC0FFD1F02
:10081E00EA0DF11D8081B60190E00E94C308A1107F
:10082E00F2CF1AC0F4E0FF1578F584E0F81A73FEE3
:10083E0023C001112AC053FE2EC05AEB852E51E063
:10084E00952E50E0A52E072D0071F4015A2D0E9411
:10085E00440C862F611126C0FF2009F4F5CC0E94AE
:10086E00960C0E94C308FA94F7CFF6018781908503
:10087E002BC08FEF9FEF28C00E94960C0E94C308DA
:10088E00FA94F110F9CFD5CFF12CB601802F90E06C
:10089E000E94C308D0CF46EB842E41E0942E40E058
:1008AE00A42ED1CF01118052B60190E00E94C30850
:1008BE00FFEF8F1A9F0AAF0AC8CF23E02F1510F44F
:1008CE0083E0B4CFF12CB7CF6496CDBFDEBFDF91FE
:1008DE00CF911F910F91FF90EF90DF90CF90BF902F
:1008EE00AF909F908F907F906F905F904F903F90C2
:0408FE002F9008959A
:10090200283008F027E03327DA01990F311D87FDDF
:10091200916000966105710539F432602E5F3D9356
:1009220030E32A95E1F708959F3F30F08038710552
:10093200610509F03C5F3C5F3D93913008F08068AF
:10094200911DDF93CF931F930F93FF92EF92192F75
:10095200987F9695E92F96959695E90FFF27E85B84
:10096200F34F99273327EE24FF24A701E7010590CF
:100972000894079428F4360FE71EF81E491F511DEC
:10098200660F771F881F991F0694A1F70590079499
:1009920028F4E70EF81E491F561FC11D770F881F46
:1009A200991F661F0694A1F70590079428F4F80E84
:1009B200491F561FC71FD11D880F991F661F771F1A
:1009C2000694A1F70590079420F4490F561FC71FFC
:1009D200D81F990F661F771F881F0694A9F7849165
:1009E2001095177041F0D695C79557954795F7948E
:1009F200E7941A95C1F7EEEEFBE068941590159115
:100A020035916591959105907FE273950E941A0C3C
:100A1200E0F7E10CF11E431F561FC91FD01D7EF4E3
:100A2200703311F48A95EACFE894015030F0080F40
:100A32000AF40027021708F4202F2395022F7A3395
:100A420028F079E37D932A95E9F70CC07D932A95E6
:100A5200A9F60694979567953795179517940E946E
:100A62001A0C98F023957E9173957A3308F070E30F
:100A72007C932013B8F77E9170617D9330F083955B
:100A820071E37D9370E32A95E1F71124EF90FF90D3
:100A92000F911F91CF91DF91992787FD909508952E
:100AA2000F931F93CF93DF930E946D0940E054E0B0
:100AB200FA01108220E234E089E0F901808380E4C7
:100AC20094E0FC011082C0E6D4E01882A0E8B4E011
:100AD2001C9200EA14E0F8011082FA01148261E02B
:100AE200F9016483FC0114821C8214961C921497EF
:100AF200F8011482FA010E94690CF901108A118A24
:100B020068E8628B0E94630CFC010E94690C188ADF
:100B120064E0698B6A8B1B8A1C8A1D8A1E8A1F8A63
:100B220050961C92509751961C92519752961C9235
:100B3200529753961C92539754961C9254975596DB
:100B42001C92559756961C92569757961C925797F9
:100B5200F8010E94690CFA010E948C0CF9010E94B2
:100B62008C0CFC010E948C0C1B861E861D861C862A
:100B72001B961C921B971E961C921E971D961C92EA
:100B82001D971C961C92F8010E948C0CE0EEF5E079
:100B920011861182108214821682178210861582A3
:100BA20012821382128684EC9CE080933A409093E6
:100BB2003B4085EC9CE0809338409093394086EC32
:100BC2009CE0809336409093374083EC9CE0809386
:100BD20034409093354082EC9CE080933240909375
:0C0BE2003340DF91CF911F910F910895D7
:100BEE0000407A10F35A00A0724E18090010A5D4D6
:100BFE00E80000E87648170000E40B54020000CA33
:100C0E009A3B000000E1F505000080969800000078
:100C1E0040420F000000A0860100000010270000D7
:100C2E000000E803000000006400000000000A005D
:100C3E00000000000100000000002C76D888DC6760
:100C4E004F0823DFC1DFAE59E1B1B796E5E3E453B8
:100C5E00C63AE651997696E8E6C28426EB898C9BD5
:100C6E0062ED407C6FFCEFBC9C9F40F2BAA56FA575
:100C7E00F490055A2AF75C936B6CF9676DC11BFCF7
:100C8E00E0E40D47FEF520E6B500D0ED902E030012
:100C9E00943577050080841E080000204E0A00005F
:100CAE0000C80C333333330F986E12831141EF8D1E
:100CBE002114893BE65516CFFEE6DB18D1844B385E
:100CCE001BF77C1D901DA4BBE424203284725E228F
:0A0CDE008100C9F124ECA1E53D27D7
:100CE8000E94560B1092000681E080930B0681E863
:100CF800809300060E946F0C80E00E94AE0C8EE587
:100D0800C82E81E0D82E80E0E82E18E09FE6692EF4
:100D180091E0792E90E0892E22E8222E21E0322ED1
:100D280020E0422E00E40E94BA0C8823B9F00E9409
:100D3800B70C0E942B0A0E94250B8F937F936F9309
:100D4800EF92DF92CF920E94820B0E946F0C0F905D
:100D58000F900F900F900F900F902EC00E94B40C20
:100D6800882351F10E94B10C0E94870CEC0110936A
:100D780027040E94250B8F937F936F938F927F9206
:100D88006F920E94820BBE0180E090E00E94FF08F3
:100D980023E333E343E55AE30E94AA0C9F938F931E
:100DA8007F936F934F923F922F920E94820B8DB741
:100DB8009EB70D968DBF9EBF0E940A0C8111FCCF75
:100DC800009364080E94BA0C8111ADCF8895000089
:020DD800AACFA0
:100DDA000FC00E942F0C38F00E94360C20F0952389
:100DEA0011F00C94810C0C94BD0C11240C943E0C43
:100DFA000E94CD0A70F3959FC1F3950F50E0551FDD
:100E0A00629FF001729FBB27F00DB11D639FAA2755
:100E1A00F00DB11DAA1F649F6627B00DA11D661FA4
:100E2A00829F2227B00DA11D621F739FB00DA11DC5
:100E3A00621F839FA00D611D221F749F3327A00D7F
:100E4A00611D231F849F600D211D822F762F6A2F1B
:100E5A0011249F5750409AF0F1F088234AF0EE0F80
:100E6A00FF1FBB1F661F771F881F91505040A9F7AD
:100E7A009E3F510580F00C94810C0C943E0C5F3F10
:100E8A00E4F3983ED4F3869577956795B795F795E9
:100E9A00E7959F5FC1F7FE2B880F911D9695879561
:040EAA0097F9089517
:100EAE00FA01AA27283051F1203181F1E8946F938D
:100EBE006E7F6E5F7F4F8F4F9F4FAF4FB1E03ED033
:100ECE00B4E03CD0670F781F891F9A1FA11D680FD1
:100EDE00791F8A1F911DA11D6A0F711D811D911D04
:100EEE00A11D20D009F468943F912AE0269F112479
:100EFE003019305D3193DEF6CF010895462F4770DD
:100F0E00405D4193B3E00FD0C9F7F6CF462F4F7037
:100F1E00405D4A3318F0495D31FD4052419302D095
:100F2E00A9F7EACFB4E0A69597958795779567953B
:100F3E00BA95C9F700976105710508959B01AC013B
:100F4E000A2E06945795479537952795BA95C9F762
:0C0F5E00620F731F841F951FA01D0895D3
:100F6A00E0E0F2E08BE0808B84E2818B128A0E94BF
:100F7A00630C108E118E81E08083118284A710A2E7
:100F8A0011A212A213A214A215A216A217A210A6A7
:100F9A0011A612A613A615A616A617A610AA11AA76
:100FAA0012AA10924B0210924D0210924C02109209
:100FBA004A0210924F02109251021092500210925D
:100FCA004E0210925302109255021092540210923D
:100FDA00520212AE13AE14AE15AE16AE17AE109282
:100FEA004002109241021092420210924302109261
:100FFA00440210924502109248021092490214AA21
:0C100A0015AA16AA17AA10AE80E00895DF
:101016001F920F920FB60F9211240BB60F922F93B9
:101026003F934F935F936F937F938F939F93AF936A
:10103600BF93EF93FF938091430180FF07C0E09138
:101046004040F0914140309709F009958091430165
:1010560081FF07C0E0913E40F0913F40309709F094
:10106600099583E080934301FF91EF91BF91AF9182
:101076009F918F917F916F915F914F913F912F91AA
:0E1086000F900BBE0F900FBE0F901F9018958D
:101094001F920F920FB60F9211240BB60F922F933B
:1010A4003F934F935F936F937F938F939F93AF93EC
:1010B400BF93EF93FF93389B05C0E0913A40F091C2
:1010C4003B4009953A9B05C0E0913840F091394086
:1010D40009953B9B05C0E0913240F091334009955E
:1010E4008FEF87B9FF91EF91BF91AF919F918F914E
:1010F4007F916F915F914F913F912F910F900BBE14
:0A1104000F900FBE0F901F9018957A
:10110E0060E080E690E00E949E0C60E081E690E058
:10111E000E949E0C60E085E690E00E949E0C60E0CE
:10112E0088E790E00E949E0C60E088E690E00E94C6
:10113E009E0C60E089E690E00E949E0C60E080E7E5
:10114E0090E00E949E0C60E08CE790E00E949E0C66
:10115E0060E082E690E00E949E0C60E083E690E004
:10116E000E949E0C60E084E690E00E949E0C60E07F
:08117E0080E890E00C949E0C47
:101186000F931F93CF93DF93FB01248121FD03C0AF
:101196008FEF9FEF2CC022FF16C047815085258117
:1011A60036814217530744F4A081B1819D012F5F18
:1011B6003F4F208331838C93278130852F5F3F4FAC
:1011C6002783308714C08B01EC01FB010184F28573
:1011D600E02D0995892BE1F6D80117968D919C9102
:1011E6001897019617968D939C931897CE01DF91C9
:0811F600CF911F910F910895A4
:1011FE00E89404C097FB16F40E94020C9923A9F000
:10120E00F92F96E9BB279395F69587957795679570
:10121E00B795F111F8CFFAF4BB0F11F460FF1BC0B4
:10122E006F5F7F4F8F4F9F4F16C0882311F096E947
:10123E0011C0772321F09EE8872F762F05C06623F5
:10124E0071F096E8862F70E060E02AF09A95660FAE
:10125E00771F881FDAF7880F9695879597F9089567
:10126E001F920F920FB60F9211240BB60F922F935F
:10127E003F934F935F936F937F938F939F93AF9310
:10128E00BF93EF93FF93799B05C0E0913640F091A9
:10129E00374009957A9B05C0E0913440F091354076
:1012AE0009958FEF8FB9FF91EF91BF91AF919F91FC
:1012BE008F917F916F915F914F913F912F910F90F1
:0C12CE000BBE0F900FBE0F901F901895E4
:1012DA00E0E1F4E00E949A0CE83184E0F807D1F7E3
:1012EA00E0E3F4E00E949A0CE83384E0F807D1F7CF
:1012FA00E0E5F4E00E949A0CE83584E0F807D1F7BB
:10130A00E0E7F4E00E949A0CE83784E0F807D1F7A6
:10131A00E0E9F4E00E949A0CE83984E0F807D1F792
:10132A00E0EBF4E00E949A0CE83B84E0F807D1F77E
:02133A00089514
:10133C001F920F920FB60F9211240BB60F922F9390
:10134C003F934F935F936F937F938F939F93AF9341
:10135C00BF93EF93FF93E0913040F0913140309781
:10136C0009F0099582E080930D06FF91EF91BF91F2
:10137C00AF919F918F917F916F915F914F913F9121
:10138C002F910F900BBE0F900FBE0F901F901895C2
:10139C001F920F920FB60F9211240BB60F922F9330
:1013AC003F934F935F936F937F938F939F93AF93E1
:1013BC00BF93EF93FF93E0913C40F0913D40309709
:1013CC0009F0099581E080935301FF91EF91BF9152
:1013DC00AF919F918F917F916F915F914F913F91C1
:1013EC002F910F900BBE0F900FBE0F901F90189562
:1013FC001F920F920FB60F9211240BB60F922F93D0
:10140C003F934F935F936F937F938F939F93AF9380
:10141C00BF93EF93FF930E94750C0E94A60C80E182
:10142C008093C701FF91EF91BF91AF919F918F91E5
:10143C007F916F915F914F913F912F910F900BBEC8
:0A144C000F900FBE0F901F9018952F
:10145600809113078077803241F4809113078F784B
:1014660080618093130785E119C0809112078295E8
:101476008695877091E0980F983039F4809113071C
:101486008F7880628093130790E080911207282F4F
:101496002F7130E2939FC0011124822B8093120793
:0A14A6000E94210C8823E1F3089551
:1014B0001F920F920FB60F9211240BB60F922F931B
:1014C0003F934F935F936F937F938F939F93AF93CC
:1014D000BF93EF93FF930E94A20C81E080930D06CF
:1014E000FF91EF91BF91AF919F918F917F916F91FC
:1014F0005F914F913F912F910F900BBE0F900FBEB8
:061500000F901F901895EA
:10150600E0ECF1E0158281E086831782118612866F
:1015160015861686118A128A158A168A118E85E014
:10152600828F158E168E118212821382138617866B
:10153600138A178A80E1838F178E10861486108A85
:10154600148A8DEA808F148E81E4808380E008956A
:10155600E0E4F1E0809141018111FACF8FEF93E051
:1015660084879587108611868FEF97E08287938709
:1015760081E080934701109242018093400180915F
:1015860051018111FCCF1092520181E080935001EC
:0415960080E0089554
:10159A0057FD9058440F551F59F05F3F71F047951A
:1015AA00880F97FB991F61F09F3F79F087950895FF
:1015BA00121613061406551FF2CF4695F1DF08C01E
:1015CA00161617061806991FF1CF8695710561053B
:0415DA0008940895D4
:1015DE00CF92DF92EF926B01E82E9A01A82FCB01EA
:1015EE002115310531F48C199D09EF90DF90CF90C4
:1015FE000895FC015A2F0E94440C6623A1F3019614
:08160E00A11D21503109ECCFB0
:101616000E945D0CE0E0F7E081E08283818317861B
:1016260080E2838B128A85E8808B8FE7848B138E0A
:10163600128E92E0908F848F13A212A290A384A39D
:041646000C94570C9D
:10164A00809113078077803239F080911207829552
:10165A00869587708F5F01C080E090E0FC01EE0FF5
:10166A00FF1F8E0F9F1FFC01EA5FFF4B6081718194
:04167A0082810895CC
:10167E00E0E0F6E01182128213821482168613863F
:10168E0081E0848792E0908790E4918794E6958339
:0E169E00148A158A128A138A808380E00895C8
:1016AC000E9451050E943F0B0E94830A0E948708EA
:1016BC000E94B5070E940B0B0E94AB0A0E94280CDB
:0C16CC000E946C0B0E94120C0C94E00BAE
:1016D800E0E6F8E081EA91E080879187158280E46E
:1016E800868383E08783138614861686158681E2AF
:0C16F80090E4809302409093034008951A
:10170400CF93DF93CDB7DEB79E012B5F3F4FF90137
:101714004191519161919F018091024090910340C8
:0A1724000E94DF00DF91CF910895CD
:10172E00092E0394000C11F4882352F0BB0F40F4E1
:10173E00BF2B11F460FF04C06F5F7F4F8F4F9F4F21
:02174E000895FC
:101750001F920F920FB60F9211248F938FEF83B9C0
:0C1760008F910F900FBE0F901F901895F6
:10176C001F920F920FB60F9211248F938FEF8BB99C
:0C177C008F910F900FBE0F901F901895DA
:101788001F920F920FB60F9211248F938FEF83BB86
:0C1798008F910F900FBE0F901F901895BE
:1017A4001F920F920FB60F9211248F938FEF87BB66
:0C17B4008F910F900FBE0F901F901895A2
:1017C00040E068ED80E191E00E94910CE0E1F1E001
:0A17D00012821382789480E00895DD
:1017DA00CF93C82F0E947B0C8823E1F3C093620841
:0817EA0080E090E0CF9108952A
:1017F200C50103968E879F87F50160807180828084
:02180200089547
:1018040090958095709561957F4F8F4F9F4F089568
:101814008091640886FB882780F991E089270895E0
:10182400E0EBF0E0148285E08083128280E008958A
:0E183400E118F10A430B560BC90BD0090895B9
:0E1842009091110781E0911101C080E008959E
:0E185000E0E5F0E083E08083118280E00895FF
:0E185E0000240A9416161706180609060895A7
:0E186C0000240A9412161306140605060895A9
:0E187A00E894BB2766277727CB0197F90895DE
:0E18880057FD03C05BBF67910895608108950E
:0C18960004960E94510C828193810895F9
:0C18A2008E879F87F50160817181089599
:0C18AE00E0E0F7E0808181608083089515
:0C18BA00E0E0F7E080818E7F80830895DD
:0C18C600138A148A158A168A178A08955E
:0C18D200108A118A128A0E94630C08958B
:0C18DE00E0E4F1E08081816080830895E7
:0C18EA00E0E4F1E080818E7F80830895AF
:0C18F6008091640885FB882780F9089524
:0C19020097F99F6780E870E060E00895AE
:0A190E0080911006909111060895D3
:0A19180013861686158614860895BE
:0A1922001BBEFC0164BF4083089562
:08192C00B60180E290E008958D
:08193400808188608193089511
:08193C00462F68ED0C94910C9C
:0819440081E080934340089507
:08194C0081E080934240089500
:081954000E94ED060C94970BB4
:06195C008093620808956B
:06196200109243400895BD
:0619680080914340089548
:06196E00109242400895B2
:061974008091424008953D
:06197A009FEF80EC0895D0
:041980000C940000C3
:021984000895C4
:021986000895C2
:021988000895C0
:02198A000895BE
:02198C000895BC
:10198E009701009901009E0100A30100A80100AA81
:0B199E000100AF0100B10100B3010027
:0F19A900000000000200000000ED0B0000000035
:02000004008278
:090000000000000000C00C00002B
:00000001FF
