:100000000C9400010C94200D0C94200D0C94200DE8
:100010000C94200D0C94BF080C94B30A0C94210A84
:100020000C943C0C0C94200D0C94200D0C94200D81
:100030000C94200D0C94200D0C94200D0C94200D8C
:100040000C94200D0C94200D0C94200D0C94200D7C
:100050000C94200D0C94200D0C94200D0C94200D6C
:100060000C94EB090C94200D0C94830A0C94530A05
:100070000C94200D0C94200D0C944A0C0C94200D23
:100080000C94200D0C94200D0C94200D0C94660CF7
:100090000C94200D0C94200D0C94200D0C94200D2C
:1000A0000C94200D0C94200D0C94200D0C94200D1C
:1000B0000C94200D0C94FE080C94580C0C94200DFC
:1000C0000C94200D0C94200D0C94200D0C94200DFC
:1000D0000C94200D0C94200D0C94200D0C94200DEC
:1000E0000C94200D0C94200D0C94200D0C94200DDC
:1000F0000C94200D400040068040064030001A500D
:1001000040304048800000407A10F35A00A0724E00
:1001100018090010A5D4E80000E87648170000E4AC
:100120000B54020000CA9A3B000000E1F5050000F4
:1001300080969800000040420F000000A086010059
:100140000000102700000000E80300000000640029
:10015000000000000A000000000001000000000094
:100160002C76D888DC674F0823DFC1DFAE59E1B1B8
:10017000B796E5E3E453C63AE651997696E8E6C2C7
:100180008426EB898C9B62ED407C6FFCEFBC9C9FCE
:1001900040F2BAA56FA5F490055A2AF75C936B6CF0
:1001A000F9676DC11BFCE0E40D47FEF520E6B500E4
:1001B000D0ED902E0300943577050080841E080052
:1001C00000204E0A000000C80C333333330F986E02
:1001D00012831141EF8D2114893BE65516CFFEE6BF
:1001E000DB18D1844B381BF77C1D901DA4BBE42485
:1001F000203284725E228100C9F124ECA1E53D2702
:1002000011241FBECFEFCDBFDFE7DEBFE4EFF0E08C
:1002100041E019C0B791A79137912791079107FD48
:100220000EC097918791EF01F92FE82F0BBF079030
:100230000D92A217B307D9F7FE011BBE04C01D9291
:10024000A217B307E1F7E530F40721F70E94C106D2
:080250000C942A01F894FFCF81
:100258004E6577204761696E3A2025730A0D0A0DAD
:100268000043757272656E74204761696E3A202585
:10027800730A0D004D656173757265643A20253106
:100288002E3366560A0D0A0D003100312E30370024
:10029800312E313400312E3333003200322E3637CE
:0802A80000340038003136007B
:0802B000696E66006E616E00CC
:1002B8002F923F924F925F926F927F928F929F926E
:1002C800AF92BF92CF92DF92EF92FF920F931F935C
:1002D800CF93DF93CDB7DEB76497CDBFDEBF6C0198
:1002E8001A01462E5901FC0117821086848181FF6C
:1002F80067C3CE0101968C879D87A0E88A8B9B8B6C
:10030800AC8BF101542D0E94B80C862F662309F49A
:1003180053C3442D91012F5F3F4F4F4F653219F062
:100328001901442E0BC0F901542F0E94B80C862FD6
:1003380092E0290E311C411C653249F4B60190E067
:100348000E947809AE86BF86AE84BF84DACF10E0FB
:10035800F12C00E00032A0F48B3269F030F48032E6
:1003680059F0833269F400612CC08D3239F0803342
:1003780039F4016026C00260046023C0086021C00F
:1003880007FD2AC090ED980F9A3078F406FF06C052
:10039800AAE01A9F900D1124192F13C0EAE0FE9EBF
:1003A800900D1124F92E00620CC08E3221F406FD46
:1003B80003C3006406C08C3611F4006802C0883696
:1003C80059F4F101542D0E94B80C862FFFEF2F1A13
:1003D8003F0A4F0A6111BECF9BEB980F933018F478
:1003E8000061805E06C09BE9980F933008F066C1F3
:1003F8000F7E06FF16E00F73702E853621F4202F2E
:100408002064722E08C0863621F4802F8068782EEA
:1004180002C01111115077FE07C01C3350F4EE24AE
:10042800E394E10E27E00BC0183038F027E017E01E
:1004380005C027E06CE3E62E02C0212FE12CF50170
:100448003496EE87FF87F5016081718182819381FF
:100458000E2DAE014F5F5F4F0E9426055C0159804B
:1004680050FE02C053FE06C071FC06C072FE06C0F4
:1004780000E205C00DE203C00BE201C000E0852DDB
:100488008C7019F0011174C2C0C277FE0FC0EA0C5B
:1004980054FE04C08A81813309F4EA941E1474F569
:1004A80028E02E1578F538E0E32E2CC076FC2AC01B
:1004B800812F90E08A159B059CF08CEFA8168FEF92
:1004C800B80674F0972D9068792E0AC0E2E0F0E043
:1004D800EC0FFD1FE10FF11D8081803319F41150DD
:1004E8001111F4CF77FE0EC0EE24E394E10E812FB4
:1004F80090E0A816B9062CF41A1904C0EE24E39467
:1005080001C010E077FE06C01A141B0434F4C501BC
:10051800019605C085E090E002C081E090E00111FD
:100528000196112331F0212F30E02F5F3F4F820FCA
:10053800931F2F2D30E08217930714F4F81A01C087
:10054800F12C872D897049F4FF2039F0B60180E23B
:1005580090E00E947809FA94F7CF002329F0B601B9
:10056800802F90E00E94780973FC09C0FF2039F0C1
:10057800B60180E390E00E947809FA94F7CF77FEFD
:1005880049C03501B7FE02C0612C712CC50186191E
:10059800970988248394912C8C0E9D1E880E991E91
:1005A800F501EE19F109E88BF98B012F10E011958F
:1005B80001951109FFEF6F167F0629F4B6018EE247
:1005C80090E00E947809A614B70444F088899989B4
:1005D800861597051CF4F401818101C080E3F1E0E0
:1005E8006F1A71082FEF821A920A601671062CF0A2
:1005F800B60190E00E947809DDCFA614B70439F45B
:100608009A81963318F4953311F454FE81E3B601B8
:1006180090E051C08A81813319F0952D9F7E592E23
:10062800B60190E00E947809111105C074FC1CC045
:1006380085E690E01BC0B6018EE290E00E94780942
:1006480002E0010F82E011E0180FE1E0F0E0EC0FAA
:10065800FD1FE80FF11D8081B60190E00E94780926
:10066800812F1013F0CFE2CF85E490E0B6010E940D
:100678007809B7FC05C0A114B10439F454FE05C0CB
:10068800B194A194B1088DE201C08BE2B60190E06B
:100698000E94780980E3EAE0AE16B1042CF08F5F7F
:1006A800AAE0AA1AB108F7CFB60190E00E9478092B
:1006B800B601C501C0960E94780974C1833631F02D
:1006C800833791F0833509F05EC024C0C5010296D6
:1006D8008E879F87F501808189836A887B888C88CB
:1006E800AA24A394B12C14C0C50103968E879F87B2
:1006F800F50160807180828006FF03C0412F50E0C1
:1007080002C04FEF5FEF882DB3010E94800B5C01A0
:100718000F7715C0C50103968E879F87F501608006
:100728007180828006FF03C0412F50E002C04FEF66
:100738005FEF882DB3010E94800B5C01006803FD08
:100748001EC08F2D90E0A816B906C8F4B60180E245
:1007580090E00E947809FA94F4CFF301582D0E9492
:10076800B80C862FFFEF6F1A7F0A8F0AB60190E048
:100778000E947809F110FA9421E0A21AB108A11494
:10078800B10459F70FC1843611F0893679F5C501DE
:1007980007FF09C004968E879F87F50160817181E4
:1007A800828193810AC002968E879F87F5016081B6
:1007B8007181072E000C880B990B0F76E02E97FF9E
:1007C8000AC090958095709561957F4F8F4F9F4F88
:1007D800F02FF068EF2E2AE030E0AE014F5F5F4F58
:1007E8000E94BF07A82E2C85A21A4BC0853729F472
:1007F8000F7EE02E2AE030E025C0902F997FE92E69
:100808008F36C1F018F4883579F0D6C0803719F0E2
:10081800883721F0D1C0A92FA061EA2EE4FE0DC0CF
:10082800EE2DE460EE2E09C004FF0AC0F92FF66031
:10083800EF2E06C028E030E005C020E130E002C01D
:1008480020E132E0C501E7FE09C004968E879F8744
:10085800F501608171818281938108C002968E873B
:100868009F87F5016081718180E090E0AE014F5F64
:100878005F4F0E94BF07A82EFC85AF1A2E2D2F7739
:10088800E22EE6FE0BC00E2D0E7FA11650F4E4FEFC
:100898000AC0E2FC08C00E2D0E7E05C0BA2C0E2D33
:1008A80003C0BA2C01C0B12E04FF0DC0FE01EA0D31
:1008B800F11D8081803311F4097E09C002FF06C052
:1008C800B394B39404C0802F867809F0B39403FDE1
:1008D80011C000FF06C0BF1488F4FA0C1F2D1B19A5
:1008E8000EC0BF1460F4B60180E290E00E9478095F
:1008F800B394F7CFBF1418F4FB1802C01A2DF12CCB
:1009080004FF10C0B60180E390E00E94780902FF5E
:1009180017C001FD03C088E790E002C088E590E0B9
:10092800B6010CC0802F867859F001FF02C08BE217
:1009380001C080E207FD8DE2B60190E00E947809CF
:10094800A11638F4B60180E390E00E9478091150AE
:10095800F7CFAA94E1E0F0E0EC0FFD1FEA0DF11DDE
:100968008081B60190E00E947809A110F2CF1AC0E8
:10097800F4E0FF1588F584E0F81A73FE24C001112D
:100988002CC053FE30C054EB852E52E0952E50E01B
:10099800A52E072D0071F4015A2D0E94B80C862F40
:1009A800611128C0FF2009F4CFCCB60180E290E0A5
:1009B8000E947809FA94F6CFF601878190852CC0B9
:1009C8008FEF9FEF29C0B60180E290E00E9478097E
:1009D800FA94F110F8CFD3CFF12CB601802F90E024
:1009E8000E947809CECF40EB842E42E0942E40E05E
:1009F800A42ECFCF01118052B60190E00E94780951
:100A0800FFEF8F1A9F0AAF0AC6CF23E02F1510F405
:100A180083E0B2CFF12CB5CF6496CDBFDEBFDF91B6
:100A2800CF911F910F91FF90EF90DF90CF90BF90E3
:100A3800AF909F908F907F906F905F904F903F9076
:040A48002F9008954E
:100A4C00283008F027E03327DA01990F311D87FD94
:100A5C00916000966105710539F432602E5F3D930B
:100A6C0030E32A95E1F708959F3F30F08038710507
:100A7C00610509F03C5F3C5F3D93913008F0806864
:100A8C00911DDF93CF931F930F93FF92EF92192F2A
:100A9C00987F9695E92F96959695E90FFF27E05A42
:100AAC00FE4F99273327EE24FF24A701E701059079
:100ABC000894079428F4360FE71EF81E491F511DA1
:100ACC00660F771F881F991F0694A1F7059007944E
:100ADC0028F4E70EF81E491F561FC11D770F881FFB
:100AEC00991F661F0694A1F70590079428F4F80E39
:100AFC00491F561FC71FD11D880F991F661F771FCF
:100B0C000694A1F70590079420F4490F561FC71FB0
:100B1C00D81F990F661F771F881F0694A9F7849119
:100B2C001095177041F0D695C79557954795F79442
:100B3C00E7941A95C1F7E6E0F1E0689415901591E9
:100B4C0035916591959105907FE27395E118F10AC5
:100B5C00430B560BC90BD009C0F7E10CF11E431F18
:100B6C00561FC91FD01D7EF4703311F48A95E6CF41
:100B7C00E894015030F0080F0AF40027021708F42B
:100B8C00202F2395022F7A3328F079E37D932A9531
:100B9C00E9F710C07D932A9589F606949795679589
:100BAC00379517951794E118F10A430B560BC90B9F
:100BBC00D00998F023957E9173957A3308F070E301
:100BCC007C932013B8F77E9170617D9330F0839500
:100BDC0071E37D9370E32A95E1F71124EF90FF9078
:100BEC000F911F91CF91DF91992787FD90950895D3
:100BFC000F931F93CF93DF930E94B40940E054E00E
:100C0C00FA01108220E234E089E0F901808380E46B
:100C1C0094E0FC011082C0E6D4E01882A0E8B4E0B5
:100C2C001C9200EA14E0F8011082FA01148261E0CF
:100C3C00F9016483FC0114821C8214961C92149793
:100C4C00F8011482FA01108A118A128A138A148A02
:100C5C00158A168A178AF901108A118A68E8628B3C
:100C6C00138A148A158A168A178AFC01108A118A2B
:100C7C00128A138A148A158A168A178A188A64E0CB
:100C8C00698B6A8B1B8A1C8A1D8A1E8A1F8A509646
:100C9C001C92509751961C92519752961C925297B7
:100CAC0053961C92539754961C92549755961C929B
:100CBC00559756961C92569757961C925797F80133
:100CCC00108A118A128A138A148A158A168A178A2C
:100CDC00FA011386168615861486F9011386168674
:100CEC0015861486FC0113861686158614861B86BB
:100CFC001E861D861C861B961C921B971E961C928C
:100D0C001E971D961C921D971C961C92F80113861B
:100D1C00168615861486E0EEF5E011861182108297
:100D2C001482168217821086158212821382128602
:100D3C0083E29DE080933E4090933F4084E29DE0AF
:100D4C0080933C4090933D4085E29DE080933A40F7
:100D5C0090933B4086E29DE08093384090933940DD
:100D6C0087E29DE08093364090933740DF91CF919E
:060D7C001F910F91089584
:100D82000E94E90B82E09DE00E94EE0C8DEF9CE058
:100D92000E94F30CE0E0F6E080818E7F808381E0A8
:100DA20083878081816080830E94CB0C80E00E94D7
:100DB2000E0D0F2EF8E5CF2EF2E0DF2EF0E0EF2E33
:100DC200F02D0F2EF7E2AF2EF4E0BF2EF02D689437
:100DD200992493F80F2EF9E62F2EF2E03F2EF0E041
:100DE2004F2EF02D0F2EFCE76F2EF2E07F2EF0E05B
:100DF2008F2EF02DC0E6D8E06894FF24F6F80E940A
:100E02001A0D8823B9F00E94170D0E94110B0E943F
:100E1200B70B8F937F936F93EF92DF92CF920E94E3
:100E2200160C0E94CB0C0F900F900F900F900F900A
:100E32000F902EC00E94140D882351F10E94110DB3
:100E42000E94E90C8C01F50190820E94B70B8F93EE
:100E52007F936F934F923F922F920E94160CB8018C
:100E620080E090E00E943B0923E333E343E55AE349
:100E72000E940A0D9F938F937F936F938F927F921D
:100E82006F920E94160C8DB79EB70D968DBF9EBFB6
:100E92000E94DD0C8823E1F3FC820E941A0D81116D
:080EA200AECF88950000ABCF34
:100EAA000FC00E94A30C38F00E94AA0C20F09523D0
:100EBA0011F00C94E30C0C941D0D11240C94B20C3B
:100ECA000E943F0B70F3959FC1F3950F50E0551F99
:100EDA00629FF001729FBB27F00DB11D639FAA2785
:100EEA00F00DB11DAA1F649F6627B00DA11D661FD4
:100EFA00829F2227B00DA11D621F739FB00DA11DF5
:100F0A00621F839FA00D611D221F749F3327A00DAE
:100F1A00611D231F849F600D211D822F762F6A2F4A
:100F2A0011249F5750409AF0F1F088234AF0EE0FAF
:100F3A00FF1FBB1F661F771F881F91505040A9F7DC
:100F4A009E3F510580F00C94E30C0C94B20C5F3F69
:100F5A00E4F3983ED4F3869577956795B795F79518
:100F6A00E7959F5FC1F7FE2B880F911D9695879590
:040F7A0097F9089546
:100F7E00FA01AA27283051F1203181F1E8946F93BC
:100F8E006E7F6E5F7F4F8F4F9F4FAF4FB1E03ED062
:100F9E00B4E03CD0670F781F891F9A1FA11D680F00
:100FAE00791F8A1F911DA11D6A0F711D811D911D33
:100FBE00A11D20D009F468943F912AE0269F1124A8
:100FCE003019305D3193DEF6CF010895462F47700C
:100FDE00405D4193B3E00FD0C9F7F6CF462F4F7067
:100FEE00405D4A3318F0495D31FD4052419302D0C5
:100FFE00A9F7EACFB4E0A69597958795779567956B
:10100E00BA95C9F700976105710508959B01AC016A
:10101E000A2E06945795479537952795BA95C9F791
:0C102E00620F731F841F951FA01D089502
:10103A00E0E0F2E08BE0808B84E2818B128A138AF3
:10104A00148A158A168A178A108E118E81E0808377
:10105A00118284A710A211A212A213A214A215A28D
:10106A0016A217A210A611A612A613A615A616A6B0
:10107A0017A610AA11AA12AA10924B0210924D0298
:10108A0010924C0210924A0210924F021092510290
:10109A001092500210924E02109253021092550270
:1010AA00109254021092520212AE13AE14AE15AE42
:1010BA0016AE17AE109240021092410210924202EE
:1010CA001092430210924402109245021092480272
:1010DA001092490214AA15AA16AA17AA10AE80E0FD
:0210EA00089567
:1010EC0040E068ED80E690E00E94F80C40E068ED8E
:1010FC0081E690E00E94F80C40E068ED85E690E017
:10110C000E94F80C40E068ED88E790E00E94F80C33
:10111C0040E068ED88E690E00E94F80C40E068ED55
:10112C0089E690E00E94F80C40E068ED80E790E0E2
:10113C000E94F80C40E068ED8CE790E00E94F80CFF
:10114C0040E068ED82E690E00E94F80C40E068ED2B
:10115C0083E690E00E94F80C40E068ED84E690E0B5
:10116C000E94F80C40E068ED80E890E00E94F80CDA
:02117C000895D4
:10117E001F920F920FB60F9211240BB60F922F9350
:10118E003F934F935F936F937F938F939F93AF9301
:10119E00BF93EF93FF938091430180FF07C0E091CF
:1011AE004440F0914540309709F0099580914301F4
:1011BE0081FF07C0E0914240F0914340309709F023
:1011CE00099583E080934301FF91EF91BF91AF9119
:1011DE009F918F917F916F915F914F913F912F9141
:0E11EE000F900BBE0F900FBE0F901F90189524
:1011FC001F920F920FB60F9211240BB60F922F93D2
:10120C003F934F935F936F937F938F939F93AF9382
:10121C00BF93EF93FF93389B05C0E0913E40F09154
:10122C003F4009953A9B05C0E0913C40F0913D4010
:10123C0009953B9B05C0E0913640F09137400995EC
:10124C008FEF87B9FF91EF91BF91AF919F918F91E4
:10125C007F916F915F914F913F912F910F900BBEAA
:0A126C000F900FBE0F901F90189511
:10127600E89409C097FB3EF490958095709561952A
:101286007F4F8F4F9F4F9923A9F0F92F96E9BB27E0
:101296009395F695879577956795B795F111F8CF5C
:1012A600FAF4BB0F11F460FF1BC06F5F7F4F8F4FC7
:1012B6009F4F16C0882311F096E911C0772321F0BD
:1012C6009EE8872F762F05C0662371F096E8862F55
:1012D60070E060E02AF09A95660F771F881FDAF7AC
:0A12E600880F9695879597F90895F3
:1012F0000F931F93CF93DF93FB01248121FD03C044
:101300008FEF9FEF2CC022FF16C0478150852581AB
:1013100036814217530744F4A081B1819D012F5FAC
:101320003F4F208331838C93278130852F5F3F4F40
:101330002783308714C08B01EC01FB010184F28507
:10134000E02D0995892BE1F6D80117968D919C9196
:101350001897019617968D939C931897CE01DF915D
:08136000CF911F910F91089538
:10136800E0E1F4E0808188608193E83184E0F80767
:10137800C9F7E0E3F4E0808188608193E83384E092
:10138800F807C9F7E0E5F4E0808188608193E835E3
:1013980084E0F807C9F7E0E7F4E08081886081938A
:1013A800E83784E0F807C9F7E0E9F4E0808188606D
:1013B8008193E83984E0F807C9F7E0EBF4E080812D
:0E13C80088608193E83B84E0F807C9F7089538
:1013D6001F920F920FB60F9211240BB60F922F93F6
:1013E6003F934F935F936F937F938F939F93AF93A7
:1013F600BF93EF93FF93799B05C0E0913A40F0913C
:101406003B4009957A9B05C0E0913840F091394000
:1014160009958FEF8FB9FF91EF91BF91AF919F9192
:101426008F917F916F915F914F913F912F910F9087
:0C1436000BBE0F900FBE0F901F9018957A
:101442001F920F920FB60F9211240BB60F922F9389
:101452003F934F935F936F937F938F939F93AF933A
:10146200BF93EF93FF938091C70184FF05C0E09182
:101472003440F0913540099580E18093C701FF9196
:10148200EF91BF91AF919F918F917F916F915F91FA
:101492004F913F912F910F900BBE0F900FBE0F9067
:0414A2001F901895EA
:1014A6001F920F920FB60F9211240BB60F922F9325
:1014B6003F934F935F936F937F938F939F93AF93D6
:1014C600BF93EF93FF9382E080930D06E091324045
:1014D600F0913340309709F00995FF91EF91BF9154
:1014E600AF919F918F917F916F915F914F913F91B6
:1014F6002F910F900BBE0F900FBE0F901F90189557
:101506001F920F920FB60F9211240BB60F922F93C4
:101516003F934F935F936F937F938F939F93AF9375
:10152600BF93EF93FF9381E080930D06E0913040E7
:10153600F0913140309709F00995FF91EF91BF91F5
:10154600AF919F918F917F916F915F914F913F9155
:101556002F910F900BBE0F900FBE0F901F901895F6
:101566001F920F920FB60F9211240BB60F922F9364
:101576003F934F935F936F937F938F939F93AF9315
:10158600BF93EF93FF93E0914040F0914140309735
:1015960009F0099581E080935301FF91EF91BF9186
:1015A600AF919F918F917F916F915F914F913F91F5
:1015B6002F910F900BBE0F900FBE0F901F90189596
:1015C600E0ECF1E0158281E08683178211861286AF
:1015D60015861686118A128A158A168A118E85E054
:1015E600828F158E168E11821282138213861786AB
:1015F600138A178A80E1838F178E10861486108AC5
:10160600148A8DEA808F148E81E4808382E29DE0C5
:0C161600809334409093354080E00895AC
:10162200809113078077803249F4E0E0F7E0838904
:101632008F788061838B85E1828B1BC0809112073A
:1016420082958695877091E0980F983039F4E0E0A2
:10165200F7E083898F788062838B90E0E0E0F7E0A7
:101662008289282F2F7130E2939FC0011124822B8F
:0C167200828B0E94950C8823E1F3089500
:10167E0057FD9058440F551F59F05F3F71F0479535
:10168E00880F97FB991F61F09F3F79F0879508951A
:10169E00121613061406551FF2CF4695F1DF08C039
:1016AE00161617061806991FF1CF86957105610556
:0416BE0008940895EF
:1016C200E0E4F1E081818111FDCFE0E4F1E08FEF10
:1016D20093E084879587108611868FEF97E0828743
:1016E200938781E087831282808381898111FDCF74
:0E16F200E0E4F1E0128A81E0808B80E0089550
:10170000CF92DF92EF926B01E82E9A01A82FCB01C6
:101710002115310531F48C199D09EF90DF90CF90A0
:101720000895FC015A2F0E94B80C6623A1F301967C
:08173000A11D21503109ECCF8D
:101738000E94C50CE0E0F7E081E082838183178690
:1017480080E2838B128A85E8808B8FE7848B138EE7
:10175800128E92E0908F848F13A212A290A384A37A
:061768000E94BF0C089571
:10176E00809113078077803239F08091120782952D
:10177E00869587708F5F01C080E090E0FC01EE0FD0
:10178E00FF1F8E0F9F1FFC01EA5FFF4B608171816F
:04179E0082810895A7
:1017A200E0E0F6E0118212821382148281E08687E1
:1017B2001386848782E0808780E4818784E685833C
:1017C200148A158A128A138A81E8808380E0089538
:1017D2000E94FE050E94D10B0E94E30A0E94760835
:1017E2000E941D080E949C0B0E94610B0E949C0C8F
:0E17F2000E94000C0E948D0C0E94740C089541
:10180000E0E6F8E081EA91E080879187158280E444
:10181000868383E08783138614861686158681E285
:0C18200090E480930240909303400895F0
:10182C00CF93DF93CDB7DEB79E012B5F3F4FF9010E
:10183C004191519161919F0180910240909103409F
:0A184C000E945C01DF91CF91089526
:10185600092E0394000C11F4882352F0BB0F40F4B8
:10186600BF2B11F460FF04C06F5F7F4F8F4F9F4FF8
:021876000895D3
:101878001F920F920FB60F9211248F938FEF83B997
:0C1888008F910F900FBE0F901F901895CD
:101894001F920F920FB60F9211248F938FEF8BB973
:0C18A4008F910F900FBE0F901F901895B1
:1018B0001F920F920FB60F9211248F938FEF83BB5D
:0C18C0008F910F900FBE0F901F90189595
:1018CC001F920F920FB60F9211248F938FEF87BB3D
:0C18DC008F910F900FBE0F901F90189579
:1018E80040E068ED80E191E00E94F80CE0E1F1E071
:0A18F80012821382789480E00895B4
:10190200CF93C82F0E94D70C8823E1F3C0936208BB
:0819120080E090E0CF91089500
:10191A00E0EBF0E0148285E08083128280E0089593
:0E192A009091110781E0911101C080E00895B5
:0E193800E0E5F0E083E08083118280E0089516
:0E19460000240A9416161706180609060895BE
:0E19540000240A9412161306140605060895C0
:0E196200E894BB2766277727CB0197F90895F5
:0E19700057FD03C05BBF679108956081089525
:0C197E00E0E0F7E0808181608083089544
:0C198A00E0E0F7E080818E7F808308950C
:0C199600E0E4F1E080818160808308952E
:0C19A200E0E4F1E080818E7F80830895F6
:0C19AE008091640885FB882780F908956B
:0C19BA008091640886FB882780F908955E
:0C19C60097F99F6780E870E060E00895EA
:0A19D200809110069091110608950F
:0A19DC00809330409093314008954D
:0A19E600809334409093354008953B
:0A19F0001BBEFC0164BF4083089594
:0A19FA000E94D10C0E94060D089512
:081A040081E080934740089542
:081A0C0081E08093464008953B
:081A14000E9455070C942B0CF5
:061A1C00809362080895AA
:061A2200109247400895F8
:061A280080914740089583
:061A2E00109246400895ED
:061A340080914640089578
:061A3A009FEF80EC08950F
:041A40000C94000002
:021A4400089503
:021A4600089501
:021A48000895FF
:021A4A000895FD
:021A4C000895FB
:021A4E000895F9
:101A50009102009302009802009D0200A20200A4DD
:0B1A60000200A90200AB0200AD020072
:0F1A6B00000000000200000000810C00000000DD
:02000004008278
:090000000000000000C00C00002B
:00000001FF
