:100000000C9489000C94B5120C94B5120C94B51292
:100010000C94B5120C94020D0C94F70E0C94650E12
:100020000C946B120C94B5120C94B5120C94B5127E
:100030000C94B5120C94B5120C94B5120C94B51224
:100040000C94B5120C94B5120C94B5120C94B51214
:100050000C94B5120C94B5120C94B5120C94B51204
:100060000C94FA0D0C94B5120C94C70E0C94970EC8
:100070000C94B5120C94B5120C9470120C94B51229
:100080000C94B5120C94B5120C94B5120C947A120F
:100090000C94B5120C94B5120C94B5120C94B512C4
:1000A0000C94B5120C94B5120C94B5120C94B512B4
:1000B0000C94B5120C94BE0C0C9475120C94B512E1
:1000C0000C94B5120C94B5120C94B5120C94B51294
:1000D0000C94B5120C94B5120C94B5120C94B51284
:1000E0000C94B5120C94B5120C94B5120C94B51274
:1000F0000C94B51240004008804008403400258C24
:100100004034404E80404E40500025B8405040544E
:10011000800011241FBECFEFCDBFDFE7DEBFE4EFCD
:10012000F0E041E019C0B791A7913791279107916D
:1001300007FD0EC097918791EF01F92FE82F0BBFB4
:1001400007900D92A217B307D9F7FE011BBE04C09A
:100150001D92A217B307E1F7E131F40721F70E94DE
:0A01600032070C94DD11F894FFCF74
:10016A004E6577204761696E3A2025730A0D0A0D9C
:10017A000043757272656E74204761696E3A202574
:10018A00730A0D004D656173757265643A20002526
:10019A00312E3366560A0D0A0D003100312E3037E2
:1001AA0000312E313400312E3333003200322E36F4
:0901BA0037003400380031360032
:1001C30068076C094C836A9074A07AC000806888C1
:0601D30000846C82008133
:1001D900494E4600696E66004E414E006E616E00E2
:0701E900286E756C6C290003
:0601F000286E696C290075
:1001F600A8E2B0E0E1E0F1E00C94E61089A39AA34E
:10020600688F798F2A8FFB010190F081E02DED87B1
:10021600FE87FB010280F381E02DEB83FC83FB016B
:100226000480F581E02DEC8BFD8BFB010084F185CC
:10023600E02DEDA3FEA3FB010680F781E02DE98307
:10024600FA83FA01408051806280738020E030E0BA
:10025600A901C301B2010E94891287FF06C077FA7D
:10026600709477F870948DE204C0FD85F2FF75C333
:100276008BE2E981FA8180832C893D8921503109FD
:100286002F83388741E050E04A8B5B8B06C08C8910
:100296009D898F8398871A8A1B8AD301C201BF77EB
:1002A6000097E0E8AE07EFE7BE07E1F42A8D022EDD
:1002B600000C330B2154310989819A814A895B8963
:1002C600840F951F2A31310520F449ED51E060E095
:1002D60003C04DED51E060E00E949F116DED71E0AD
:1002E60080E01FC00197A048BF4738F12A8D022E33
:1002F600000C330B2154310989819A814A895B8923
:10030600840F951F2A31310520F441EE51E060E05B
:1003160003C045EE51E060E00E949F1165EE71E07A
:1003260080E00E946E11E981FA81AF0160E8ED84F8
:10033600FE840C891D899C0108C320E030E0A901D8
:10034600C301B2010E948912812C912C20E8A22EB1
:100356002FE3B22E212C312C882309F488C049863C
:100366005A866B867C8620E030E040E251E4C50187
:10037600B4010E949B126B017C01D301C2018C194E
:100386009D09AE09BF09B7FF07C0B095A095909526
:1003960081959F4FAF4FBF4F0297A105B10534F42A
:1003A600FFEF2F1A3F0A46015701DDCFA301920145
:1003B600C701B6010E94891287FDF2CFC984DA848B
:1003C600EB84FC84C818D908EA08FB082FEFC21A88
:1003D600D20AE20AF20A33E0C316D104E104F104B8
:1003E60008F443C000E010E0A3019201C501B40186
:1003F6000E948E121816DCF544ED24164EEF3406D4
:10040600CCF401151105B1F420E030E040E85AE5DE
:10041600C301B2010E949B122B013C0120E030E097
:1004260040E85AE5C501B4010E949B124B015C01EC
:1004360001E010E020E030E040E251E4C501B40103
:100446000E949F124B015C0151E0251A3108D3012D
:10045600C20188199909AA09BB090196A11DB11DF6
:100466000397A105B10508F0BFCF240135018A8D98
:10047600082E000C990B8A8F9B8F0E94F91188A376
:10048600EB81FC81F7FD03C0E987FA8704C026E00B
:1004960030E029873A8738A1373651F44B815C81A1
:1004A600452B09F05FC281E090E089879A875AC29E
:1004B60028A1298B04C037FE66C236E6398B4985EA
:1004C6005A854F5F5F4F49875A875989563699F43F
:1004D60037FE08C0812C912C90E8A92E9FE3B92EF7
:1004E600212C312C88A1873631F0E985FA85E20D79
:1004F600F31DE987FA8788A69FA2AB82BF867301A0
:1005060062011E8A1F8A4E895F8989859A854817E6
:100516005907E4F528A53FA14B815F85C701B601C0
:100526000E949F120E9418096C8F7D8F8E8F9F8F5D
:100536000E942B126BA38701760117FB109517F902
:10054600109528A53FA14B815F856C8D7D8D8E8D85
:100556009F8D0E947A086B017C01F7FAF094F7F8F8
:10056600F09420E030E040E251E468A57FA18B8161
:100576009F850E949F1268A77FA38B839F872E89E2
:100586003F892F5F3F4F2E8B3F8BBDCF20E030E062
:1005960040EA50E468A57FA18B819F850E949B124B
:1005A6006B837C838D839E839B01AC01C701B6015F
:1005B6000E94891287FD0DC02B813C814D815E8191
:1005C600C701B6010E948912811107C09BA190FD47
:1005D60004C01B821C821D821E82A30192016B81B4
:1005E6007C818D819E810E9425122B013C0120E099
:1005F60030E040E251E4C501B4010E949B126B83D6
:100606007F87D82EC92E9B01482F592FC301B201CF
:100616000E948E1287FD11C0EFEF2E1A3E0AF9894D
:10062600F63679F429853A852F5F3F4F29873A8731
:100636003B813FA34F8548A70BC08B829F86DA2C50
:10064600CB2C5989553631F08B818FA39F8598A77E
:10065600410106C0EB81EFA3FF85F8A7812C912C01
:10066600AA88BB88E12CF12C1E8A1F8A1F86188A4D
:100676002D853E85207133272BA33CA32F853889F2
:1006860049855A852417350734F08E899F89892B29
:1006960009F4A0C0ACC08501E88DF98D80859185EF
:1006A6000597A816B90688F72FA138A54D2D5C2DFC
:1006B600C301B2010E949F120E9418096C8F7D8FA0
:1006C6008E8F9F8F0E942B126A30710514F069E09D
:1006D60070E04BA15CA1452B69F46115710551F4DD
:1006E60058A1573639F497FE05C0C70101968B838A
:1006F6009C8341C0EE89FF89EF2BA9F497FE13C0B6
:10070600FFEFAF1ABF0AE981FA81E00FF11F2EE26F
:1007160020834F815885415051094F83588781E086
:1007260090E08E8B9F8BE981FA81EA0DFB1DEB82AF
:10073600FC824B815C81452B49F090E391932B81A0
:100746003C81215031092B833C83F3CFC7018A0DAD
:100756009B1D2F8138852E193F095C015FEFA51A75
:10076600B50AE981FA81E80FF91F605D6083C90166
:1007760001978F8398878301720117FB109517F9EC
:1007860010952FA138A54D2D5C2D6C8D7D8D8E8DF0
:100796009F8D0E947A082B013C0177FA709477F8B6
:1007A600709420E030E040E251E46FA178A58D2DF1
:1007B6009C2D0E949F126FA378A7D82EC92E91E078
:1007C600891A9108EF85F8893196EF87F88BEB80C7
:1007D600FC8054CFFD85F4FF0AC0E981FA81EA0D59
:1007E600FB1D8EE2808395012F5F3F4F59014981A2
:1007F6005A814A0D5B1D4B835C83FA011082F9898D
:10080600F53609F061C0E981FA812DA13EA1E20F1A
:10081600F31F3197108237FE06C0319421943108B8
:1008260001E010E002C000E010E0EDA1FEA131976A
:1008360049815A81E40FF51F22E030E08AE0E82E74
:10084600F12CCF0149815A81841B950B2114310467
:1008560079F0C101B7010E944611805D82931B01A8
:10086600215031098F81988501978F839887E9CF29
:100876001216130674F3FC013197E40FF51F012BD2
:1008860011F42BE201C02DE220830297E981FA815F
:10089600E80FF91F2A8D3B8D215431092A31310584
:1008A60010F025E601C025E420832F8138852250EB
:1008B60031092F833887A816B90634F4AF0160E8EA
:1008C6008B819C810E949F1149815A813A0180E85F
:1008D600882E9D8591FF2EC090FD2CC0EF81F88556
:1008E6001E161F063CF5882DB3010E946E11298144
:1008F6003A81820F931F9C0149815A81241B350B33
:10090600EA89FB892E173F074CF0FC012081EF8115
:10091600F885E80FF91F20830197EDCF4F815885A1
:1009260060E370E089819A818E0F9F1F0E94E81113
:100936001C8A1D8A882DB3010E946E11ED84FE84E7
:100946000C891D899C01682DA30189A19AA10E9489
:10095600E10BA896E2E10C9417115D8553FF97CC45
:1009660080E287CC2CEF22162FEF32064CF0E98579
:10097600FA852E163F060CF49ECDF5E6F98BBBCD17
:0C09860035E6398BB8CD46E6498BB5CD7F
:100992002F923F924F926F927F928F929F92AF923D
:1009A200BF92CF92DF92EF92FF920F931F93CF935A
:1009B200DF93CDB7DEB72E97CDBFDEBF4C016B0103
:1009C200380119821A828FEF9FEF8B839C831D82DD
:1009D2001E824F83588729873A87A12CB12CD601D2
:1009E2002D913D914C912A0D3B1D411DB7FC4A951D
:1009F200F901542F0E941D12862F611116C0F601B3
:100A0200208331834283F901542F0E941D126532E3
:100A120009F011C21901442EFFEF2F1A3F0A4F0AA3
:100A2200D6012D923D924C921BC0653241F3B40126
:100A3200082E000C990B0E94750C4FEFA41AB40AF1
:100A4200CECF6C32DCF06D3229F529813A812160FA
:100A520029833A830196A11DF60180839183A283A3
:100A6200F60180819181A281FC015A2F0E941D1200
:100A72006B3239F729813A812460EACF603221F45E
:100A820029813A812860E4CF633251F429813A8185
:100A92002061DECF603321F429813A812260D8CFF0
:100AA200B701C6010E94410D8D839E8397FF0BC043
:100AB20029813A81F1E02F2729833A839195819503
:100AC20091098D839E8389819A8180FF03C08D7FE6
:100AD20089839A83F60180819181A281FC015A2F38
:100AE2000E941D126E3261F40196A11DF6018083EF
:100AF2009183A283B701C6010E94410D8B839C831F
:100B0200C6010E94410B182FD6019C9111968C911F
:100B1200119712965C91E92FF82F0E941D12862FD1
:100B2200660F990B0E94F911893609F44BC084F4BF
:100B3200833609F41CC134F4853209F448C1813684
:100B4200E1F053C18436F1F188360CF4EBC04DC1AB
:100B5200803709F4B2C03CF48E3609F4D8C08F361F
:100B620009F46EC042C1853709F44BC0883709F4D5
:100B720086C0833709F039C110C1612F70E0A70127
:100B8200CE010B960E942610892B09F44BC1F60167
:100B920080819181A2819C014A2F2F5F3F4F4F4F4D
:100BA200208331834283FC015A2F0E941D12262F7B
:100BB200AE01455F5F4FBE016F5F7F4FC4010E9470
:100BC20000002DC1612F70E0970141E050E0CE019D
:100BD2000B960E940000892B09F424C1F601808142
:100BE2009181A2810196A11D80839183A283AE018E
:100BF200455F5F4FBE016F5F7F4FC4010E940000DF
:100C02000EC1612F70E0970140E050E0CE010B96DB
:100C12000E940000892B09F405C1F60180819181AF
:100C2200A2810196A11D80839183A283AE01455FBB
:100C32005F4FBE016F5F7F4FC4010E940000EFC093
:100C4200612F70E0970140E050E0CE010B960E94C8
:100C52000000892B09F4E6C0F60180819181A2810E
:100C62000196A11D80839183A283AE01455F5F4FF0
:100C7200BE016F5F7F4FC4010E940000D0C0612F90
:100C820070E0970140E050E0CE010B960E94000018
:100C9200892B09F4C7C0F60180819181A2819C0150
:100CA2004A2F2F5F3F4F4F4F208331834283FC01F6
:100CB2005A2F0E941D12262F20C0970140E050E0BB
:100CC20060EF70E0CE010B960E940000892B09F4C0
:100CD200A9C0F60180819181A2810196A11D808324
:100CE2009183A2838B859C85892B31F400E010E0EF
:100CF20020EF31E040E08DC028E7AE01455F5F4F55
:100D0200BE016F5F7F4FC4010E94000088C0A50131
:100D1200460D571D612F70E09701CE010B960E9480
:100D2200000080C0612F70E0A701CE010B960E94E7
:100D32002610892B09F476C0F60180819181A28167
:100D42009C014A2F2F5F3F4F4F4F208331834283B5
:100D5200FC015A2F0E941D12262FAE01455F5F4FE4
:100D6200BE016F5F7F4FC4010E94FB0058C0103864
:100D720009F058C0F60180819181A2810196A11DDE
:100D820080839183A283D701ED91FC911197CF01CA
:100D920002968D939C93808126C0103809F042C040
:100DA200F60180819181A2810196A11D80839183A8
:100DB200A283D701ED91FC911197CF0103968D93F8
:100DC2009C9320813181428100E010E022C01038E2
:100DD20049F5F6012081318142812F5F3F4F4F4F0C
:100DE2002083318342838B870EC085E28B87F60195
:100DF20020823182428219821A821D821E828FEFE4
:100E02009FEF8B839C839E01255F3F4F40E801E06B
:100E120010E0BE016F5F7F4FC4010E94BD0D8A0DBD
:100E22009B1D0AC0F60180819181A2810196A11DBC
:100E320080839183A283C5012E96CDBFDEBFDF9151
:100E4200CF911F910F91FF90EF90DF90CF90BF90C5
:100E5200AF909F908F907F906F904F903F902F9088
:020E62000895F1
:100E64000E942F1183E992E10E94611284E892E1C9
:100E74000E946612E0E0F6E080818E7F808381E04C
:100E840083878081816080830E94D21180E00E94E8
:100E9400A3120F2EFAE6CF2EF1E0DF2EF0E0EF2EB4
:100EA400F02D6894992493F80F2EFEE86F2EF1E04C
:100EB4007F2EF0E08F2EF02D00E618E0C0E40F2E18
:100EC400F9E92F2EF1E03F2EF0E04F2EF02D0E9495
:100ED400AF128823B9F00E94AC120E94B20F0E9494
:100EE400B3108F937F936F93EF92DF92CF920E9410
:100EF400CD100E943E120F900F900F900F900F9004
:100F04000F9046C00E94A912882309F441C00E9490
:100F1400A6120E945C12BC0180E090E00E94800D49
:100F240023E333E343E55AE30E949B12D62FF72EC3
:100F3400B82EA92EE7E2F4E090820E94B3108F93BA
:100F44007F936F938BE791E0A0E0AF939F938F9390
:100F54000E94CD108F927F926F920E94CD108DB718
:100F64009EB709968DBF9EBF0E9450128823E1F35D
:100F7400F801C483AF92BF92FF92DF934F923F92E6
:100F84002F920E94CD108DB79EB707968DBF9EBF3E
:100F94000E9450128823E1F3F801C4830E94AF1227
:0A0FA400811195CF8895000092CFCF
:100FAE000F931F93CF93DF9340E054E0FA0110822A
:100FBE0020E234E089E0F901808380E494E0FC01D2
:100FCE001082C0E6D4E01882A0E8B4E01C9200EAD9
:100FDE0014E0F8011082FA01148261E0F9016483D1
:100FEE00FC0114821C8214961C921497F801148230
:100FFE00FA01108A118A128A138A148A158A168A9D
:10100E00178AF901108A118A48E8428B138A148ACA
:10101E00158A168A178AFC01108A118A128A138A77
:10102E00148A158A168A178A188A84E0898B8A8B05
:10103E001B8A1C8A1D8A1E8A1F8A50961C925097E4
:10104E0051961C92519752961C92529753961C92FF
:10105E00539754961C92549755961C9255975696A4
:10106E001C92569757961C92F801108A118A128A72
:10107E00138A148A158A168A178AE0EEF5E011860D
:10108E0011821082148216821782108615821282A5
:10109E00138212868AEB92E18093444090934540EE
:1010AE008BEB92E180934240909343408CEB92E124
:1010BE0080934040909341408DEB92E180933E406F
:1010CE0090933F408EEB92E180933C4090933D4055
:1010DE008FEB92E180933A4090933B40DF91CF911A
:0610EE001F910F9108950F
:1010F400A5E1B0E0E0E8F8E00C94E61047015801FF
:101104000E949B122B013C01A80197010E94251209
:10111400162FC72ED82EF92E862F9C2DAD2DBF2D20
:1011240089839A83AB83BC83AA81FB81EC81ED80A4
:101134003E802F8008850D8B5E2F5F71212F3A2F03
:101144004F2F60E070E080E090E02115310541050B
:1011540000E15007610571058105910509F05EC044
:101164005E2F6E2D732D822D9D8904E30E944810FD
:101174002D873E874F87588B698B7A8B8B8B9C8B03
:101184008D859E8597708F3F974009F447C0A301D2
:101194009201612F7C2D8D2D9F2D0E9424129B0185
:1011A400AC01C501B4010E9489128823B9F14986B2
:1011B4005A866B867C8629853A854B855C85C50174
:1011C400B4010E942512B62E872E982EA92E262F02
:1011D400372F482F592F612F7C2D8D2D9F2D0E9445
:1011E4008912811118C02B2D8B2D982DA92DBA2D64
:1011F40089839A83AB83BC833A814B815C816E2D56
:10120400732D822D9D89A1E00E94C611122FC32E39
:10121400D42EF52E03C01B2D6401FA2C612F7C2DD6
:0C1224008D2D9F2D6596E2E10C941711B2
:101230004F925F926F927F928F929F92AF92BF92E6
:10124000CF92DF92EF92FF92CF93DF93CDB7DEB7CD
:101250002897CDBFDEBF6B017C01DC01CB0147E1EC
:10126000B695A795979587954A95D1F799278F5762
:101270009109873191059CF597FD36C088248A94A1
:10128000982C3FE7A32EB12C04C0B594A794979453
:1012900087948A95D2F7D501C4018C219D21AE2176
:1012A000BF21892B8A2B8B2BD1F020E030E040E846
:1012B0005BE7C701B6010E9425126D837E838F8391
:1012C0009887F7FE04C0C80CD91CEA1CFB1C80944C
:1012D0009094A094B094C820D920EA20FB205C2DE3
:1012E0004D2D3E2D2F2D21C020E030E040E85BE762
:1012F000C701B6010E94251269837A838B839C8380
:10130000F7FE0FC0D701C601880F991FAA1FBB1F88
:10131000892B8A2B8B2B19F350E040E030E82FEB20
:1013200004C050E040E030E020E0652F742F832FB0
:10133000922F2896CDBFDEBFDF91CF91FF90EF9027
:10134000DF90CF90BF90AF909F908F907F906F90E5
:061350005F904F9008952C
:1013560010C00E940F1258F00E94081240F029F4A3
:101366005F3F29F00C94561251110C9417120C94ED
:10137600B2120E94041068F39923B1F3552391F336
:10138600951B550BBB27AA2762177307840738F0EE
:101396009F5F5F4F220F331F441FAA1FA9F335D04B
:1013A6000E2E3AF0E0E832D091505040E695001CFF
:1013B600CAF72BD0FE2F29D0660F771F881FBB1FB9
:1013C600261737074807AB07B0E809F0BB0B802D97
:1013D600BF01FF2793585F4F3AF09E3F510578F0C3
:1013E6000C9456120C9417125F3FE4F3983ED4F314
:1013F600869577956795B795F7959F5FC9F7880F97
:10140600911D9695879597F90895E1E0660F771FE8
:10141600881FBB1F621773078407BA0720F0621B79
:0E142600730B840BBA0BEE1F88F7E095089548
:101434000FC00E94081238F00E940F1220F095236A
:1014440011F00C9456120C94B21211240C9417122D
:101454000E94041070F3959FC1F3950F50E0551F3F
:10146400629FF001729FBB27F00DB11D639FAA27F5
:10147400F00DB11DAA1F649F6627B00DA11D661F44
:10148400829F2227B00DA11D621F739FB00DA11D65
:10149400621F839FA00D611D221F749F3327A00D1F
:1014A400611D231F849F600D211D822F762F6A2FBB
:1014B40011249F5750409AF0F1F088234AF0EE0F20
:1014C400FF1FBB1F661F771F881F91505040A9F74D
:1014D4009E3F510580F00C9456120C9417125F3FF6
:1014E400E4F3983ED4F3869577956795B795F79589
:1014F400E7959F5FC1F7FE2B880F911D9695879501
:0415040097F90895B6
:1015080011C00E94081238F00E940F1220F039F41E
:101518009F3F19F426F40C94B2120EF4E095E7FB01
:101528000C945612E92F0E94041058F3BA17620758
:1015380073078407950720F079F4A6F50C94161222
:101548000EF4E0950B2EBA2FA02D0B01B9019001D6
:101558000C01CA01A0011124FF27591B99F0593F1A
:1015680050F4503E68F11A16F040A22F232F342F62
:101578004427585FF3CF469537952795A795F040B0
:101588005395C9F77EF41F16BA0B620B730B840BC5
:10159800BAF09150A1F0FF0FBB1F661F771F881F7D
:1015A800C2F70EC0BA0F621F731F841F48F48795D5
:1015B80077956795B795F7959E3F08F0B0CF9395C7
:0E15C800880F08F09927EE0F979587950895E4
:1015D600E0E0F2E086E0808B118A128A138A148A90
:1015E600158A81E084A710A211A212A213A214A246
:1015F60015A216A217A215A616A612AE13AE16AE01
:1016060017AE109240021092410214AA15AA17A60C
:10161600168A178A10AA12AA109242021092430240
:10162600109248021092490216AA108E118E10A628
:1016360011A612A613A611AA14AE15AE1092440254
:101646001092450217AA10AE10924B0210924D024C
:1016560010924C0210924A0210924F0210925102BE
:101666001092500210924E0210925302109255029E
:0C167600109254021092520280E008957D
:10168200CF92DF92EF92DC0190E0292F30E0220F1F
:10169200331F6901032E000CEE086E2DA6014D5377
:1016A2005E4F6F4F6A01E62EFA015E2D0E941D12F7
:1016B200862F61110EC02F5F3F4F032E000C440B8B
:1016C2002D533E4F4F4FF901542F0E941D12862F6A
:1016D20025C0CD90DD90EC901297F6015E2D0E9410
:1016E2001D12861316C02F5F3F4F032E000C440BB2
:1016F2002D533E4F4F4FF901542F0E941D12962F2A
:101702005FEFC51AD50AE50ACD92DD92EC921297E7
:1017120001C09F5F9B3008F4B8CF892FEF90DF9014
:04172200CF900895C7
:1017260040E068ED80E690E00E947F1240E068EDC0
:1017360081E690E00E947F1240E068ED85E690E049
:101746000E947F1240E068ED88E790E00E947F12D9
:101756004CE068ED88E690E00E947F1240E068ED7C
:1017660089E690E00E947F1240E068ED80E790E015
:101776000E947F1240E068ED8CE790E00E947F12A5
:1017860040E068ED82E690E00E947F1240E068ED5E
:1017960083E690E00E947F1240E068ED84E690E0E8
:1017A6000E947F1240E068ED80E890E00E947F1280
:0C17B600E0E6F0E0858181FFFDCF0895A2
:1017C2006F927F928F92AF92BF92CF92DF92EF92FF
:1017D200FF920F931F93CF93DF935C013A01862E02
:1017E200E901670181E0C822DD24E0FC03C0201783
:1017F200310758F09E01682DA301C5010E94300EE9
:10180200C017D10710F0CE0118C07801EC1AFD0AFA
:10181200E114F10449F0B50180E290E00E94750CF8
:1018220081E0E81AF108F4CFCD2831F49E01682D49
:10183200A301C5010E94300EC801DF91CF911F9113
:101842000F91FF90EF90DF90CF90BF90AF908F906D
:061852007F906F900895E5
:10185800A3E8B0E0E2E3FCE00C94EC105C01490181
:10186800CF57DF4F488359836A83C158D040C12C72
:10187800D12CCF57DF4F9881C158D040CE57DF4F7A
:101888008881C258D040CD57DF4F5881C358D040C7
:10189800E92FF82F0E941D126623E9F074018601D2
:1018A80020E830E0AE014F5F5F4FBE016F577F4FBA
:1018B800C5010E94C9048C0D9D1D8C159D054CF415
:1018C8008FE490E080930640909307408FEF9FEF5E
:1018D80003C06C01CECFC601CD57DF4FECE00C94AE
:0218E8001D11D0
:1018EA000F931F93CF93DF93DB012D913C911197B7
:1018FA0030FF25C017964D915C91189715962D913A
:10190A003C9116974217530778F41296ED91FC9181
:10191A001397808312962D913C9113972F5F3F4F17
:10192A0012962D933C93139717962D913C911897E5
:10193A002F5F3F4F17962D933C93189715C01D960E
:10194A00ED91FC911E97309719F48FEF9FEF0CC021
:10195A008B01EC010995892BC1F7F80187819085E4
:10196A00019687839087CE01DF91CF911F910F91C6
:02197A000895CE
:10197C001F920F920FB60F9211240BB60F922F934A
:10198C003F934F935F936F937F938F939F93AF93FB
:10199C00BF93EF93FF93399B05C0E0914440F091C6
:1019AC0045400995389B05C0E0914240F091434079
:1019BC0009953A9B05C0E0914040F0914140099552
:1019CC003B9B05C0E0913A40F0913B4009958FEF6D
:1019DC0087B9FF91EF91BF91AF919F918F917F91BB
:1019EC006F915F914F913F912F910F900BBE0F9084
:0819FC000FBE0F901F9018951B
:101A04001F920F920FB60F9211240BB60F922F93C1
:101A14003F934F935F936F937F938F939F93AF9372
:101A2400BF93EF93FF938091430180FF07C0E09140
:101A34004A40F0914B40309709F009958091430159
:101A440081FF07C0E0914840F0914940309709F088
:101A5400099583E080934301FF91EF91BF91AF918A
:101A64009F918F917F916F915F914F913F912F91B2
:0E1A74000F900BBE0F900FBE0F901F90189595
:101A8200CF93DF93DC01EB012D913D914C911297A5
:101A9200F901542F0E941D126A3221F080E090E079
:101AA2007AE00FC02F5F3F4F4F4F2D933D934C93E2
:101AB200E881F981CF01029688839983808191819F
:101AC2001BC02D913D914C911297F901542F0E9408
:101AD2001D1260536A3080F4789FF001799FF00DF7
:101AE2001124CF01860F911D2F5F3F4F4F4F2D9332
:0E1AF2003D934C931297E5CFDF91CF9108956D
:101B0000E89409C097FB3EF4909580957095619597
:101B10007F4F8F4F9F4F9923A9F0F92F96E9BB274D
:101B20009395F695879577956795B795F111F8CFC9
:101B3000FAF4BB0F11F460FF1BC06F5F7F4F8F4F34
:101B40009F4F16C0882311F096E911C0772321F02A
:101B50009EE8872F762F05C0662371F096E8862FC2
:101B600070E060E02AF09A95660F771F881FDAF719
:0A1B7000880F9695879597F9089560
:101B7A006F927F928F92CF92DF92EF92FF920F93A2
:101B8A001F93CF93DF936C01FB013901842EC801A7
:101B9A00C281D38104811581E080F180232B242B1B
:101BAA0031F429EE622E21E0722E20E0822E009777
:101BBA0021F4882DB3010E946E11D7FD04C0C81705
:101BCA00D90708F4CE019C01682DA301C6010E9421
:101BDA00E10BDF91CF911F910F91FF90EF90DF9072
:0A1BEA00CF908F907F906F900895C8
:101BF4001F920F920FB60F9211240BB60F922F93D0
:101C04003F934F935F936F937F938F939F93AF9380
:101C1400BF93EF93FF93799B05C0E0913E40F09111
:101C24003F4009957A9B05C0E0913C40F0913D40CE
:101C340009958FEF8FB9FF91EF91BF91AF919F916C
:101C44008F917F916F915F914F913F912F910F9061
:0C1C54000BBE0F900FBE0F901F90189554
:101C60006F927F928F92CF92DF92EF920F931F939A
:101C7000CF93DF938C016A01E62EE9013A01862EAB
:101C8000620E731E811C37FD8A94C614D704E804C3
:101C900081F0F6015E2D0E941D12862FB801082EDC
:101CA000000C990B0E94750C8FEFC81AD80AE80A2D
:101CB000ECCFCE01DF91CF911F910F91EF90DF908C
:0A1CC000CF908F907F906F900895F1
:101CCA001F920F920FB60F9211240BB60F922F93F9
:101CDA003F934F935F936F937F938F939F93AF93AA
:101CEA00BF93EF93FF938091C70184FF05C0E091F2
:101CFA003840F0913940099580E18093C701FF91FE
:101D0A00EF91BF91AF919F918F917F916F915F9169
:101D1A004F913F912F910F900BBE0F900FBE0F90D6
:041D2A001F90189559
:101D2E001F920F920FB60F9211240BB60F922F9394
:101D3E003F934F935F936F937F938F939F93AF9345
:101D4E00BF93EF93FF9382E080930D06E0913640B0
:101D5E00F0913740309709F00995FF91EF91BF91BF
:101D6E00AF919F918F917F916F915F914F913F9125
:101D7E002F910F900BBE0F900FBE0F901F901895C6
:101D8E001F920F920FB60F9211240BB60F922F9334
:101D9E003F934F935F936F937F938F939F93AF93E5
:101DAE00BF93EF93FF9381E080930D06E091344053
:101DBE00F0913540309709F00995FF91EF91BF9161
:101DCE00AF919F918F917F916F915F914F913F91C5
:101DDE002F910F900BBE0F900FBE0F901F90189566
:101DEE001F920F920FB60F9211240BB60F922F93D4
:101DFE003F934F935F936F937F938F939F93AF9385
:101E0E00BF93EF93FF93E0914640F0914740309798
:101E1E0009F0099581E080935301FF91EF91BF91F5
:101E2E00AF919F918F917F916F915F914F913F9164
:101E3E002F910F900BBE0F900FBE0F901F90189505
:101E4E000E940C1088F09F5798F0B92F9927B75120
:101E5E00B0F0E1F0660F771F881F991F1AF0BA9540
:101E6E00C9F714C0B13091F00E941612B1E0089576
:101E7E000C941612672F782F8827B85F39F0B93F68
:101E8E00CCF3869577956795B395D9F73EF49095F3
:0E1E9E008095709561957F4F8F4F9F4F0895EF
:101EAC00E0ECF1E0158281E08683178211861286C0
:101EBC0015861686118A128A158A168A118E85E065
:101ECC00828F158E168E11821282138213861786BC
:101EDC00138A178A80E1838F178E10861486108AD6
:101EEC00148A8DEA808F148E81E4808389EB92E1D1
:0C1EFC00809338409093394080E00895B6
:101F0800E0E6F8E083E896E080879187158280EC28
:101F1800868383E08783138614861686158680EC6D
:101F280092E1809304409093054081EC92E1809384
:101F380002409093034082EC92E18093004090939A
:101F4800014010924C4010924D40E0914E40F0916B
:0C1F58004F4083E290E480839183089561
:101F6400809113078077803249F4E0E0F7E08389B9
:101F74008F788061838B85E1828B1BC080911207EF
:101F840082958695877091E0980F983039F4E0E057
:101F9400F7E083898F788062838B90E0E0E0F7E05C
:101FA4008289282F2F7130E2939FC0011124822B44
:0C1FB400828B0E9401128823E1F3089543
:101FC000990F0008550FAA0BE0E8FEEF161617064A
:101FD000E807F907C0F012161306E407F50798F0B2
:101FE000621B730B840B950B39F40A2661F0232BCB
:101FF000242B252B21F408950A2609F4A140A69547
:082000008FEF811D811D089581
:1020080057FD9058440F551F59F05F3F71F04795A1
:10201800880F97FB991F61F09F3F79F08795089586
:10202800121613061406551FF2CF4695F1DF08C0A5
:10203800161617061806991FF1CF869571056105C2
:04204800089408955B
:10204C00FA0160387105CCF0623871051CF0633808
:10205C00710599F4A081B1819D012C5F3F4F2083C4
:10206C0031834D915D916D917C91FC014083518345
:10207C006283738381E090E0089580E090E008959E
:10208C0097FB10F8169400080F93083098F008503E
:10209C00232F342F452F562F672F782F892F902DD4
:1020AC00F4CF0594979587957795679557954795B0
:0C20BC00379527950A95AAF70F91089513
:1020C8000E943812E0E0F7E083E0828311821786ED
:1020D80080E2838B128A85E8808B8FE7848B138E4E
:1020E800128E92E0908F848F13A212A290A384A3E1
:0620F8000E94321208955F
:1020FE00E0E0F6E0118212821382148281E086877C
:10210E008387848782E0808780E4818784E6858365
:10211E008FEF9FE0848B958B128A138A81E88083E0
:04212E0080E00895B0
:10213200E0E4F1E081818111FDCFE0E4F1E08FEF95
:1021420093E084879587108611868FEF97E08287C8
:10215200938781E08783128281898111FDCF10925A
:042162005201089589
:10216600809113078077803239F08091120782952B
:10217600869587708F5F01C080E090E0FC01EE0FCE
:10218600FF1F8E0F9F1FFC01E85FFF4B608171816F
:0421960082810895A5
:10219A00A0E0B0E0E3EDF0E10C94F6109E012B5FB5
:1021AA003F4FF9014191519161919F01E0914E4058
:1021BA00F0914F40808191810E94FF10E2E00C94DF
:0221CA002711DB
:1021CC002F923F924F925F926F927F928F929F923B
:1021DC00AF92BF92CF92DF92EF92FF920F931F9329
:1021EC00CF93DF93CDB7DEB7CA1BDB0BCDBFDEBF02
:0221FC00099444
:1021FE00A2E0B0E0E5E0F1E10C94F4108C0129834B
:10220E003A839E012F5F3F4F0E942C0CF8012081D4
:10221E0024FF02C08FEF9FEF2296E4E00C9425116D
:10222E002A88398848885F846E847D848C849B8458
:10223E00AA84B984C884DF80EE80FD800C811B8166
:10224E00AA81B981CE0FD11DCDBFDEBFED0108959C
:10225E000E94D7070E947F100E94560F0E94930B78
:10226E000E94EB0A0E9464100E9499100E94911124
:0E227E000E94840F0E94F1110E94AD1108957C
:10228C0097FB072E16F4009407D077FD09D00E9417
:10229C005A1107FC05D03EF4909581959F4F0895F7
:0822AC00709561957F4F0895C4
:1022B400AA1BBB1B51E107C0AA1FBB1FA617B70768
:1022C40010F0A61BB70B881F991F5A95A9F7809584
:0822D4009095BC01CD010895B5
:1022DC009B01482FA82FCB01FC015A2F0E941D12E5
:1022EC00662319F00196A11DF7CF642FA901841B59
:0422FC00950B0895A1
:10230000092E0394000C11F4882352F0BB0F40F403
:10231000BF2B11F460FF04C06F5F7F4F8F4F9F4F43
:0223200008951E
:1023220043E068ED80E590E00E947F1240E068EDB6
:0C23320081E590E00E947F1280E0089599
:10233E009A01462FDC01F901542F0E941D126D9354
:0C234E002F5F3F4F4F4F6111F6CF0895F5
:10235A0040E468ED80E191E00E947F12E0E1F1E063
:0A236A0012821382789480E0089537
:10237400CF93C82F0E944A128823E1F3C0936208C6
:0823840080E090E0CF91089584
:10238C000024A7FD00942A0F301D401D501D601D18
:08239C00701D801D901D0895C5
:1023A400E0E4F1E0818180FDFDCFE0E4F1E08081B3
:0623B4008168808308959A
:1023BA00EC010E94C4120E94C312CE010E94C512EF
:0623CA00CE010E94B712D3
:1023D000FC01480F591FE417F50711F06193FBCF7B
:0223E00008955E
:1023E200E0EBF0E0148285E08083128280E00895C1
:1023F2009C01215431092A31310508F48062089583
:0E2402009091110781E0911101C080E00895D2
:0E24100000240A9416161706180609060895E9
:0E241E0000240A9412161306140605060895EB
:0E242C00E894BB2766277727CB0197F9089520
:0E243A0057FD03C05BBF679108956081089550
:0E2448005058BB27AA270E94840A0C948011CA
:0E2456000E94270F6894B1110C94171208957C
:0C246400E0E0F7E0808181608083089553
:0C247000E0E0F7E080818E7F808308951B
:0C247C00E0E4F1E080818160808308953D
:0C248800E0E4F1E080818E7F8083089505
:0C2494008091640885FB882780F908957A
:0C24A0008091640886FB882780F908956D
:0C24AC0097F99F6780E870E060E00895F9
:0A24B800809110069091110608951E
:0A24C2008093344090933540089554
:0A24CC008093384090933940089542
:0A24D6008F938FEF83B98F91189553
:0A24E0008F938FEF8BB98F91189541
:0A24EA008F938FEF83BB8F9118953D
:0A24F4008F938FEF87BB8F9118952F
:0A24FE001BBEFC0164BF408308957B
:0A2508000E9444120E9497120895E9
:0A2512000E94E00F08F481E0089534
:0A251C000E94E00F08F48FEF08950D
:0825260081E080935340089509
:08252E0081E080935240089502
:082536000E941A0A0C948011A6
:08253E000E94AB090C9480110E
:0625460080936208089575
:06254C00109253400895B7
:0625520080915340089542
:06255800109252400895AC
:06255E0080915240089537
:062564009FEF80EC0895DA
:04256A000C940000CD
:04256E000E94B30014
:022572000895CA
:022574000895C8
:022576000895C6
:022578000895C4
:02257A000895C2
:02257C000895C0
:02257E000895BE
:022580000895BC
:022582000895BA
:022584000895B8
:022586000895B6
:022588000895B4
:02258A000895B2
:10258C00A40100A60100AB0100B00100B50100B729
:0B259C000100BC0100BE0100C00100F6
:1025A70003000000000000000000000000BA110056
:0125B7000023
:0225B800504091
:02000004008278
:090000000000000000C00800002F
:00000001FF
